:0400000002002132A7
:03000B00020DB92A
:0100130032BA
:03001B00020D13C0
:10007A0075278E75280075298E752A00752B0075CF
:10008A002C00752D00752E00752F00E4F530F53122
:10009A00F532F533F534F535F536F53774022423A0
:1000AA00F538E43400F539740B2423F53AE43400C6
:1000BA00F53B74022434F53CE43400F53D740F2416
:0800CA0034F53EE43400F53F7B
:0300DB0002001E02
:03001E000205D404
:1000DE009000017457F09000027465F09000037464
:1000EE006CF09000047463F0900005746FF0900053
:1000FE0006746DF09000077465F09000087420F09F
:10010E009000097474F090000A746FF090000B74F4
:10011E0020F090000C7441F090000DF090000E74E1
:10012E0055F090000F7443F09000107453F090004F
:10013E0011E4F09000127420F0900013F09000146F
:10014E00F0900015F0900016F0900017744EF0909D
:10015E000018746FF0900019742EF090001A74202D
:10016E00F090001B7433F090001C7431F090001D61
:10017E007420F090001EF090001FF0900020F09080
:10018E000021F0900022E4F07F00EF2401F582E4DC
:10019E003400F583E0F5098F08758200C00712065A
:1001AE00BCD007BF070050248F0674052EFEFC330B
:1001BE0095E0FDEC2412F582ED3400F583E0F509AF
:1001CE008E08758201C0071206BCD007900032C09F
:1001DE000712071FD0070FBF100040AE900001128C
:1001EE00073C7F007E00EE2401FCE43400FD8E030C
:1001FE000BEB3395E0FAEB2401F582EA3400F5833C
:10020E00E08C828D83F0EE2412FCE43400FDEB24AE
:10021E0012F582EA3400F583E08C828D83F00EBEF7
:10022E00100040C29000107420F0900021F0750B69
:10023E0001750C00750D00750A00758200C007125D
:10024E0006D5750B12750C00750D00750A007582BA
:10025E00011206D590001912071FD0070FBF10000C
:10026E0050030201F222AD82AE83AFF0758200C060
:10027E0007C006C005120698758201120698D005B1
:10028E00D006D007750A038D0B8E0C8F0D7582006C
:10029E001206D585218285228302071F30B7FD7590
:1002AE00212C75220190173675F080120274C2004F
:1002BE00C201C202752320752420752520752600E3
:1002CE0020B403020459A200200101B34016750B9D
:1002DE0023750C00750D00750A007582001206D587
:1002EE00A200920120B70530B7FDB2003000030224
:1002FE0003ADA2029203A202E4331424FF92023051
:10030E000314750B23750C00750D40750A0275826A
:10031E00001206D58012750B23750C00750D007535
:10032E000A007582001206D520B63430B6FD0534AB
:10033E00E4B534020535C37480953474808535F088
:10034E0063F08095F05006753480753500853865FC
:10035E008539667567008534828535831210EC30D9
:10036E00B50302045030B5FD153474FFB5340215D3
:10037E0035C3E5349536E53564808537F063F08016
:10038E0095F050068536348537358538658539665E
:10039E007567008534828535831210EC020450A2F5
:1003AE00029203A202E4331424FF92023003147566
:1003BE000B23750C00750D40750A0B758200120625
:1003CE00D58012750B23750C00750D00750A00751E
:1003DE0082001206D520B63630B6FD0536E4B536A7
:1003EE00020537C3E5349536E53564808537F0630D
:1003FE00F08095F05006853436853537853A65851B
:10040E003B667567008536828537831210EC20B502
:10041E003130B5FD153674FFB536021537C3E536E6
:10042E0094C9E5376480947F50067536C97537FFD9
:10043E00853A65853B6675670085368285378312FA
:10044E0010EC90012C12071F0202CE75212C752282
:10045E000190174175F08012027485340E7582007A
:10046E00120CA785360E758201020CA7758200123A
:10047E000CCA85385985395A755B00755C34755DC3
:10048E0000755E40120E56758201120CCA853A59DD
:10049E00853B5A755B00755C36755D00755E401266
:1004AE000E56AD3CAE3D7F007540308F41754240DB
:1004BE008D828E838FF012085E853E82853F83AFDC
:1004CE002B74302FF085368285378312141DAC8243
:1004DE00AD83AEF0FFC004C005C006C007853082F4
:1004EE008531838532F0E533120E09E58124FCF562
:1004FE0081E58224FFB39204E43324FF92A0853475
:10050E008285358312141DAC82AD83AEF0FFC0041C
:10051E00C005C006C0078530828531838532F0E57F
:10052E0033120639AC82AD83AEF0FFE58124FCF5C3
:10053E00818C828D838EF0EF12142AAE82AF83C32C
:10054E00EE9406EF648094804011752B03752C0198
:10055E00752D01752E01752F018047C3EE9404EFA2
:10056E00648094804011752B02752C01752D0175D8
:10057E002E01752F00802BC3EE9402EF64809480C1
:10058E004011752B01752C01752D01752E00752FDF
:10059E0000800F752B00752C00752D00752E0075C3
:1005AE002F00750B23750C00750D00750A007582F2
:1005BE00001206D5750B34750C00750D00750A000A
:1005CE007582010206D51212921200DE75212C756B
:1005DE00220190174C75F08012027420B32430B3B0
:1005EE00FD75212C75220190175875F0801202743A
:1005FE00750E16758200120CA7750E1475820112F7
:10060E000CA720B21830B2FD75212C75220190175F
:10061E006575F080120274120CFC120D6120B70683
:0B062E0030B7FD1202AA12047A80B05F
:1017360053657474696E672E2E2E0057726974692C
:101746006E672E2E2E005374617274696E672E2E8C
:101756002E00526573657474696E672E2E2E0044D2
:101766006562756767696E672E2E2E00483A78782F
:1017760078DF4320204C3A787878DF4300543A7873
:0E17860078782E78DF43202046414E3A7800D6
:10063900A8811818C6B2E7C6021317AF82C292C2C0
:1006490090C2918F8090000112071FD292900005ED
:1006590012071FC29222AF82C292D290C2918F809A
:1006690090000112071FD29290000512071FC29233
:100679002275823812064475820C12064475820668
:10068900120644758201120644758280020644E509
:10069900825401030354C0FF74804FF5821206444B
:1006A9007F00758220C00712065FD0070FBF1000B8
:1006B90040F022E5825401030354C0FFE5082F44AA
:1006C90080F58212064485098202065FE58254019B
:1006D900030354C0FFE50A2F4480F582120644AF94
:1006E9000AAC0BAD0CAE0D8C828D838EF01214C743
:1006F900FB60228B82C007C006C005C00412065FDA
:10070900D004D005D006D0070FBF100050070CBC8D
:1007190000D50D80D222AE82AF83EE4F60147C7B70
:100729007D001CBCFF011DEC4D70F71EBEFF011FB3
:1007390080E822AE82AF83EE4F60159003E8C007D0
:10074900C00612071FD006D0071EBEFF011F80E793
:1007590022AE82AF838E048F051EBEFF011FEC4DB2
:1007690070F322C29590004012075AD2957E007FFD
:10077900003095260EBE00010F900001C007C0068B
:1007890012071FD006D007C374059E74808FF063CB
:10079900F08095F050DB7582002275820122AF82CC
:1007A9007D007E00C295EF540124FF92957B067C63
:1007B900008B018C021BBBFF011CE94A70F3D29527
:1007C900EFC313FF0DBD00010EC3ED9408EE9400B5
:1007D90040D2227F007D087E00C295D295A295E481
:1007E90033FCEFC313FBEC0354804BFF7B047C0009
:1007F9008B018C021BBBFF011CE94A70F31DBDFF75
:10080900011EED4E70D38F822212076C90000112E7
:10081900071F7582CC1207A77582440207A7120722
:100829006C90000112071F7582CC1207A77582BE52
:100839000207A71208121208271207DCAF82C007A5
:100849001207DCAE82D0078E05E4FEFCEF4EF5827E
:10085900EC4DF5832285824385834485F045120852
:100869003CAB82E583FC30E77B8543828544838505
:1008790045F0742D120DEEEB24FFF9EC34FFFAE983
:10088900F4F582EAF4F58312141DA882A983AAF06B
:10089900FFC000C001C002C00790000075F0C87415
:1008A9004012157EAA82AD83AEF0FFE58124FCF5E6
:1008B90081E4C0E0C0E0C0E0743FC0E08A828D837B
:1008C9008EF0EF121317AA82AD83AEF0FFE58124F3
:1008D900FCF5818A828D838EF0EF12142AAE82AFE5
:1008E900830209708B828C8312141DAA82AB83AC9C
:1008F900F0FDC002C003C004C00590000075F0C837
:10090900744012157EAA82AB83ACF0FDE58124FC0C
:10091900F581E4C0E0C0E0C0E0743FC0E08A828BAA
:10092900838CF0ED121317AA82AB83ACF0FDE5813D
:1009390024FCF5818A828B838CF0ED12142AAE8215
:10094900AF83751210751327C007C006121546AC80
:1009590082AD83D006D00774302CFC854382854450
:10096900838545F0120DEE74012543F552E43544B3
:10097900F5538545547512107513278E828F83C0E0
:1009890007C0061214E37512E8751303121546A978
:1009990082D006D0077430298552828553838554C5
:1009A900F0120DEE74022543F546E43544F547850A
:1009B90045487512E87513038E828F83C007C006F8
:1009C9001214E3751264751300121546A982D00634
:1009D900D0077430298546828547838548F0120DF2
:1009E900EE74032543F8E43544F9AA4588828983DE
:1009F9008AF0742E120DEE74042543F549E435444A
:100A0900F54A85454B7512647513008E828F8312E2
:100A190014E375120A751300121546AE8274302E4E
:100A2900854982854A83854BF0120DEE740525436D
:100A3900FAE43544FEAF458A828E838FF074DF1263
:100A49000DEE74062543FAE43544FEAF458A828EDD
:100A5900838FF07443120DEE854382854483854567
:100A6900F01214C7FFBF2D028003020B2F8552829B
:100A79008553838554F01214C77E0024D0F512EEF5
:100A890034FFF51390000A120E39AE82AF83854602
:100A9900828547838548F01214C77A0024D0F9EA81
:100AA90034FFFAE92EF54CEA3FF54D854982854A2E
:100AB90083854BF01214C77A0024D0F582EA34FFFB
:100AC900F58312141DA882A983AAF0FFC000C001F2
:100AD900C002C00790CCCD75F0CC743D12157E854F
:100AE900824E85834F85F050F551E58124FCF581CF
:100AF900854C82854D8312141DA882AA83AEF0FF0E
:100B0900C04EC04FC050C05188828A838EF0EF1208
:100B19001317A982AA83AEF0FFE58124FCF581EFC2
:100B2900B2E7FF020C108543828544838545F012A4
:100B390014C77D0024D0F512ED34FFF5139000643D
:100B4900120E39AC82AD838552828553838554F068
:100B59001214C77B0024D0F512EB34FFF513900073
:100B69000AC005C004120E39A882AB83D004D0058F
:100B7900E82CFCEB3DFD8546828547838548F012CC
:100B890014C77B0024D0F8EB34FFFBE82CF54EEBBF
:100B99003DF54F854982854A83854BF01214C77B01
:100BA9000024D0F582EB34FFF58312141DA882AB23
:100BB90083ACF0FDC000C003C004C00590CCCD7566
:100BC900F0CC743D12157E85825585835685F05784
:100BD900F558E58124FCF581854E82854F831214F1
:100BE9001DA882AB83ACF0FDC055C056C057C05894
:100BF90088828B838CF0ED121317A982AA83AEF039
:100C0900FFE58124FCF581AB40AC41AD428B828C80
:100C1900838DF0E9120DEEA3EA120DEEA3EE120D8B
:100C2900EEA3EF120DEE8543828544838545F012CC
:100C390014C7FFBF300E8543828544838545F07410
:100C490020120DEE8552828553838554F01214C704
:100C5900FFBF30498543828544838545F01214C717
:100C6900FFBF200280108543828544838545F012A9
:100C790014C7FFBF2D278543828544838545F0121C
:100C890014C7FF8552828553838554F0120DEE8572
:0E0C990043828544838545F07420020DEE22CF
:06005000E478FFF6D8FD84
:100CA700AF82C0071213707582A0121380D0078F0E
:100CB70082121380850E8212138012137990012CF1
:100CC70002071FAF82C0071213707582A01213802C
:100CD700D0078F821213801213707582A1121380AE
:100CE7001213B6AF82C00712137990012C12071F97
:050CF700D0078F8222EE
:10002E0079F7E94400601B7A01901772782375A066
:10003E0000E493F2A308B8000205A0D9F4DAF27531
:02004E00A0FF11
:0600D200750F007510001F
:100CFC00D29453890F438910758B00758D00C28F68
:100D0C00D28ED2ABD2AF22C0E0C0F0C082C083C0C2
:100D1C0007C006C005C004C0D075D000E50F75F043
:100D2C0002A42445F582740035F0F583E0FEA3E0BF
:100D3C00FF4E600E8E047D008C8B8F067F008E8D97
:100D4C00B294D0D0D004D005D006D007D083D082B6
:100D5C00D0F0D0E032E510248FF582E43400F58336
:100D6C00E0FFBFFF02802A8F0F0510E510248FF5DE
:100D7C0082E43400F583E075F07DA4F58285F08380
:100D8C0012071F0510C28E90000512071FD28E800D
:060D9C00C4C28ED29422B5
:1017940000008CF8F3F85BF9B8F915FA67FAB9FAAE
:1017A40004FB4BFB90FBCFFB10FC44FC79FCACFC32
:1017B400DCFC09FD34FD5CFD82FDA6FDC8FDE8FDF1
:1017C40006FE22FE3DFE56FE6EFE85FE9AFEAEFE2F
:1017D400C1FED3FEE4FEF4FE03FF19041B0414044B
:1017E4001B041D041401120111010D0119041B0431
:1017F40014041404000414011401140116010D014D
:1018040016010D0119041B0414041B041D04140106
:10181400120111010D0119041B0414041404000421
:101824000D010D010C010D010C010D011401160136
:101834000D0116011D041D041B04140116010D01E4
:1018440016011B041B040D041801160114011601D2
:101854000D0116010D040F021802160114020001F5
:0518640014020F04FF57
:0300D8007511009F
:100DA200C2A75389F043890185298A85278CC28D80
:100DB200D28CD2A9D2AF22C0E0C007C006C001C007
:100DC200D075D00085298A85278C74035511242C6F
:100DD200F9E724FF92A70511749C251150037511A0
:100DE20000D0D0D001D006D007D0E03220F71130A9
:100DF200F6138883A88220F509F6A883758300225A
:100E020080FEF280F5F022FFA88118181213F2D2A8
:100E1200D133E6400730E70B7582002220E70675E2
:100E2200820122C2D11213D4E97003F5822220D1A9
:100E320001B3E433F58222E5828512F0A4C582C0B3
:100E4200F08513F0A4D0F025F0C5838512F0A42517
:100E520083F58322AF82BF81005003020F4B8F06BE
:100E6200C3E49EFEAB59AC5AAD5B8B828C838DF092
:100E7200742D120DEE74012BF55FE43CF5608D616B
:100E82008E027E007512648E138A828E83C006C023
:100E920005C004C003C0021214E375120A751300E0
:100EA200121546A882D002D003D004D005D0067411
:100EB2003028F8855F828560838561F0120DEE74BB
:100EC200022BFBE43CFC75120A7513008A828E83A6
:100ED200C005C004C003C0001214E3AA82D000D02F
:100EE20003D004D00574302AFA8B828C838DF012E1
:100EF2000DEEAC5CAD5DAE5E7B00E824D0F512EB8E
:100F020034FFF51390000AC006C005C004C00212E7
:100F12000E39A982AB83D002D004D005D0068A0054
:100F22007A00E824D0F8EA34FFFAE829F9EA3BFB30
:100F3200C3E499F9E49BFB8C828D838EF0E9120D58
:100F4200EEA3EB120DEE02107DAC59AD5AAE5B7BF7
:100F5200007512648B138F828B83C007C006C00595
:100F6200C004C003121546A982D003D004D005D014
:100F720006D007743029F9895F8C828D838EF0E563
:100F82005F120DEE74012CF562E43DF5638E64751B
:100F920012647513008F828B83C007C006C005C020
:100FA20004C0031214E375120A751300121546A940
:100FB20082D003D004D005D006D007743029F98539
:100FC20062828563838564F0120DEE74022CFCE468
:100FD2003DFD75120A7513008F828B83C006C00512
:100FE200C004C0011214E3AB82D001D004D005D0FA
:100FF2000674302BFB8C828D838EF0120DEEAD5C6D
:10100200AE5DAF5EAA5F7C00EA24D0F512EC34FF3D
:10101200F513900064C007C006C005C003C00112EA
:101022000E39AA82AC83D001D00389007900E8246A
:10103200D0F512E934FFF51390000AC004C003C0D2
:1010420002120E39A882A983D002D003D004D0059F
:10105200D006D007E82AFAE93CFC8B017B00E924A0
:10106200D0F9EB34FFFBE92AFAEB3CFC8D828E834C
:101072008FF0EA120DEEA3EC120DEEAD59AE5AAF9F
:101082005B8D828E838FF01214C7FCBC300B8D8275
:101092008E838FF07420120DEE74012DFAE43EFB64
:1010A2008F048A828B838CF01214C7F9B9303A8D7F
:1010B200828E838FF01214C7F9B92002800D8D82BF
:1010C2008E838FF01214C7F9B92D1E8D828E838FF5
:1010D200F01214C7F98A828B838CF0120DEE8D8286
:1010E2008E838FF07420020DEE22858268E583F5EF
:1010F2006920E70302117EAB65AC66AD678B828C1B
:10110200838DF0742D120DEE74012BF8E43CF98DF1
:101112000275120A751300856882856983C005C04D
:1011220004C003C002C001C000121546AE82D00046
:10113200D001D002D003D004C3E49E243088828937
:10114200838AF0120DEE74022BFBE43CFC75120A4A
:10115200751300856882856983C004C0031214E395
:10116200AE82AF83D003D004D005C3E49E2430FE08
:101172008B828C838DF0120DEE021223AD65AE666A
:10118200AF67751264751300856882856983C0072D
:10119200C006C005121546AB82D005D006D0077432
:1011A200302B8D828E838FF0120DEE74012DFAE4B6
:1011B2003EFB8F047512647513008568828569830E
:1011C200C007C006C005C004C003C0021214E37504
:1011D200120A751300121546A882D002D003D00459
:1011E200D005D0067430288A828B838CF0120DEEE3
:1011F20074022DFDE43EFE75120A751300856882A5
:10120200856983C006C0051214E3AB82AC83D005A6
:10121200D006D00774302BFB8D828E838FF0120D97
:10122200EEAD65AE66AF678D828E838FF01214C706
:10123200FCBC300B8D828E838FF07420120DEE7405
:10124200012DFAE43EFB8F048A828B838CF0121408
:10125200C7F9B9303A8D828E838FF01214C7F9B96B
:101262002002800D8D828E838FF01214C7F9B92D62
:101272001E8D828E838FF01214C7F98A828B838C23
:10128200F0120DEE8D828E838FF07420020DEE220D
:10129200D294C2A7D2A0120DA212067A02076CE55E
:1012A20012451360467A01E51225E0F512E5133383
:1012B2004012F513E5829512E583951340030A80E7
:1012C200E6C3E51313F513E51213F512C3E5829590
:1012D20012F5F0E58395134005F58385F082C3E5A9
:1012E2001313F513E51213F512DAE1227A10E4FB77
:1012F200FCE58225E0F582E58333F583EB33FBECF5
:1013020033FCEB9512F5F0EC95134006FCABF04381
:101312008201DADD221216217900E583B58202808C
:101322000D50031214ADE583C3958212164FE5D01A
:10133200C465D020E117EA2DFAEB3EFBEC3FFC50EE
:1013420009740112164FEC4480FC02145EC3EA9D3C
:10135200FAEB9EFBEC9FFC500FC3E499F9E49AFA76
:0E136200E49BFBE49CFCB2D112169202145ED6
:100056007800E84400600A790175A000E4F309D845
:10006600FC7822E84400600C7901900001E4F0A3DA
:04007600D8FCD9FADF
:10137000D297D296C297C29622C297D296D297227D
:10138000AF827E00EF23540124FF92978F05ED2D4D
:10139000FFD296C2960EBE080040E9D297D2967F41
:1013A0000030970C0FEF243750F7C2967582002259
:1013B000C296758201227F00D2977E00D2968F0559
:1013C000ED2DFDA297E4334DFFC2960EBE080040FE
:1013D000EB8F82227901AA82E68F82B5821318E60A
:1013E000B5F00E18E6B5830918E68A82B58202794F
:1013F0000022B4800FE5F0700AE5837006E5827084
:10140000027F00EFB6801518B6001018B6000B1852
:10141000B6000608080876002208080822AC83AB4C
:10142000827A007900748E0215221216C5700AE5C0
:1014300082458345F0700122E430D112F4700BE54F
:10144000F0F47006E58330E7012290800022700AF4
:10145000E5F07006E58320E70122907FFF22B98046
:1014600003EA13B34010EA2401FAE43BFBE43CFC3A
:1014700050047C800582BC000EBB000BBA0008E45F
:10148000F5F0F583F58222A2D1E582138CF092F774
:101490008B838A8222E4F583F58275F080F4A2D1F1
:1014A0001322E4F583F58275F0C0747F22E582C5CE
:1014B00083F582A2D133A2D592D11392D5ECCFFC81
:0714C000EBCEFBEACDFA229E
:0D002100758169121720E582600302001E40
:1014C70020F71430F6148883A88220F507E6A8834E
:1014D70075830022E280F7E49322E022C2D5E583F8
:1014E70030E70DD2D5E4C39582F582E49583F58381
:1014F700E51330E70BE4C39512F512E49513F513E2
:101507001212A130D50BE4C39582F582E49583F5D9
:101517008322FCABF0AA83A982749EF582C2D1EC28
:1015270030E716D2D1E9F42401F9EAF43400FAEBF2
:10153700F43400FBECF43400FC12169202145EC281
:10154700D5E58330E70DD2D5E4C39582F582E495DE
:1015570083F583E51330E70DB2D5E4C39512F51291
:10156700E49513F5131212EE30D50BE4C39582F50B
:1015770082E49583F58322121621BC000302147FAF
:10158700EF60FA30D502B2D1E583B4FF03021495B8
:10159700E582B4FF03021495258340072482400B9C
:1015A70002147F2483145003021495F582EA8DF008
:1015B700A4A8F0EA8EF0A428F8E435F0F9EB8DF052
:1015C700A428E935F0F9E433CA8FF0A429F9EA35FC
:1015D700F0FAEBF88EF0A429F9EA35F0FAE433FBD8
:1015E700EC8DF0A429F9EA35F0FAE43BFBE88FF03B
:1015F700A42AFAEB35F0FBE433CCFD8EF0A42AFAEB
:10160700EB35F0FBE43CFCED8FF0A42BFBEC35F065
:10161700FC20E70312169202145EAA82AB83A2F79C
:101627003392D1F5826002D2F7ACF0E58124F9F864
:10163700E6FD08E6FE0886F008E6A2F73392D5F540
:10164700836002D2F7AFF0226040F825825002741F
:10165700FFF582E824F8501ECCCBCAF9E4CC24F875
:101667005014CBCAF9E4CB24F8500BCAF9E4CA24C6
:10167700F8500379002224086010F8C3EC13FCEB40
:1016870013FBEA13FAE913F9D8F1227804EC701185
:10169700E58224F8500AF582E4C9CACBFCD8EF22C8
:1016A700EC7820058220E713D5820122C3E933F9BC
:1016B700EA33FAEB33FBEC33FCD8EA158222121734
:1016C70024C3749E95824039790012164F30D12673
:1016D700E9F42401F582EAF43400F583EBF43400ED
:1016E700F5F0ECF43400700AE582458345F07001AB
:1016F70022E430E70F22EC20E71489828A838BF0FB
:101707002230D10AE4F582F583F5F074802274FF64
:10171700F582F583F5F0747F2275820022AA82ABE9
:0F17270083A2F73392D1F5826002D2F7ACF022A1
:00000001FF
