:061237008B258A268927A1
:10123D00E4FFFE1212DB7F011212DB7D03AB25AA48
:0F124D0026A927E4FF1211167F2C7E0102129EA4
:100D0700E4F521F522FF1211E87527007528007513
:100D170029089000E6E0FBA3E0FAA3E0F9120BCD67
:100D27007F011211E87527007528007529139001B6
:100D370000E0FBA3E0FAA3E0F9120BCD75260075DE
:100D4700270075280A9000FAE0FBA3E0FAA3E0F970
:100D5700120800E50E2430FF9000FDE0FBA3E0FA47
:100D6700A3E0F9EF120484AC13AD14EC12028EABBE
:100D77000DAA0CA90BA80A12021C50028001C3B3CA
:100D870092A0AC08AD09EC12028EA804A905AA0628
:100D9700AB07AF0DAE0CAD0BAC0A1200211202C7A8
:100DA7008E218F22C3E5229406E52164809480403A
:100DB70011750E0375150175160175170175180163
:100DC7008042C3E5229404E5216480948040117534
:100DD7000E02751501751601751701E4F5188024C3
:100DE700C3E5229402E52164809480400C750E01CE
:100DF700751501751601E48007E4F50EF515F5166E
:100E0700F517F5187B017A0079E9E4FDFF12111651
:0D0E17007B017A0079D5E4FD7F0102111600
:10132F0053657474696E672E2E2E00577269746937
:0A133F006E672E2E2E0020202000E5
:1005C000C200C201C20278217C007D007BFF7A1349
:1005D00079457E007F0412041830B7FD7BFF7A1343
:1005E000792F12123720B402E121A200300101B3A9
:1005F00050107B017A0079E9E4FDFF121116A20088
:10060000920120B70530B7FDB200300002C194B2AC
:100610000230020B7B007A0079217D02E480087BA6
:10062000017A0079E9E4FDFF12111620B62E30B6EA
:10063000FD0509E50970020508D39480E50864808A
:10064000948040067508007509809000E6E0FBA3E1
:10065000E0FAA3E0F9AF09AE08120F1930B502E1D4
:100660001830B5FDE509150970021508C3E50995AF
:1006700014E5136480F8E508648098500685130833
:100680008514099000E6E0FBA3E0FAA3E0F9AF09C6
:10069000AE08E115B20230020B7B007A0079217DB1
:1006A0000BE480087B017A0079E9E4FDFF12111662
:1006B00020B63230B6FD0514E51470020513D3954B
:1006C00009E5086480F8E5136480984006850813FE
:1006D000850914900100E0FBA3E0FAA3E0F9AF1450
:1006E000AE13120F1920B53030B5FDE51415147096
:1006F000021513C3E51494C9E5136480947F500672
:100700007513FF7514C9900100E0FBA3E0FAA3E0A4
:10071000F9AF14AE13120F197F2C7E0112129EA195
:10072000E57BFF7A13793A121237AD09E4FF121212
:080730007EAD147F0102127E70
:10125C0057656C636F6D6520746F20414155435326
:10126C000020202020204E6F2E20333120202020E3
:02127C00200050
:100E2400E4F521F522F52375243278037C017D0154
:100E34007BFF7A12795CFE7F1112041878147C010E
:100E44007D017BFF7A12796D7E007F11120418E414
:100E5400F52174032521F582E43401F583E0FBAD2B
:100E640021E4FF1213E6E521C394075017E521247A
:100E740005FD74192521F582E43401F583E0FB7F37
:100E8400011213E6AF24AE2312129E0521E521C3FD
:100E9400941040BE7F017E001212F8E4F521E4F5BF
:100EA4002274042522F582E43401F583E0FF7403FF
:100EB4002522F582E43401F583EFF074152522F53B
:100EC40082E43401F583E0FF74142522F582E434CE
:100ED40001F583EFF00522E522B410C590011274E8
:100EE40020F0900123F07B017A017903E4FDFF12E5
:100EF40011167B017A017914E4FD7F01121116E5C4
:100F040023C313FEE52413FF12129E0521E521C31A
:040F14009410408A6B
:010F180022B6
:10127E008F258D26120FF27FA0121188AF25121125
:10128E0088AF261211881200037F2C7E0102129E57
:0211E8008F2353
:1011EA00120FF27FA0121188AF23121188120FF288
:1011FA007FA11211881213628F241200037F2C7EA2
:06120A000112129EAF2448
:0112100022BB
:100A8700604A008B0000F88CF8F3F95BF9B8FA15A7
:100A9700FA67FAB9FB04FB4BFB90FBCFFC10FC4455
:100AA700FC79FCACFCDCFD09FD34FD5CFD82FDA698
:100AB700FDC8FDE8FE06FE22FE3DFE56FE6EFE85E3
:100AC700FE9AFEAEFEC1FED3FEE4FEF4FF03608B8A
:100AD700000019041B0414041B041D041401120153
:100AE70011010D0119041B0414041404000414015A
:100AF7001401140116010D0116010D0119041B043F
:100B070014041B041D041401120111010D01190421
:100B17001B041404140400040D010D010C010D0144
:100B27000C010D01140116010D0116011D041D0410
:100B37001B04140116010D0116011B041B040D04EF
:100B470018011601140116010D0116010D040F02FB
:100B5700180216011402000114020F04FF011A0003
:030B670001190071
:1013A800D29453890F438910E4F58BF58DC28FD2FF
:0613B8008ED2ABD2AF2281
:03001B000210943C
:10109400C0E0C083C082C0D075D000C006E51A2568
:1010A400E0248BF582E43400F583E0FEA3E04E6097
:1010B40018E51A25E0248BF582E43400F583E0FE7C
:1010C400A3E0F58BEEF58DB294D006D0D0D082D0CB
:0410D40083D0E032B3
:1010D80074002519F582E43400F583E0FFF46029F3
:1010E8008F1A051974002519F582E43400F583E098
:1010F80075F07DA4FFAEF012129E0519C28E7F0511
:0E1108007E0012129ED28E80C7C28ED294221A
:10129E00D3EF9400EE94004015E4FDFC0DBD00016B
:0E12AE000CED647B4C70F5EF1F70E51E80E2C6
:0112BC00220F
:1012F800AB07AA06D3EB9400EA9400400E7FE87E81
:0C1308000312129EEB1B70EC1A80E9220D
:0B000E00EF1FAC0670011E4C70F622C4
:10115400E4F530F531C2957F40FE12000ED2953091
:10116400951F0531E531700205307F017E001212B2
:101174009ED3E5319405E5306480948040E17F009E
:03118400227F01C6
:011187002245
:1007C400E4FBFAC2950531E53170020530EF13926E
:1007D40095753000753106E5311531AC3070021570
:1007E400304C70F3D295EFC313FF0BBB00010AEB3F
:0507F40064084A70CE0C
:0107F90022DD
:10104F00E4F9F5307D08FCC2950FBF0000D2950F73
:10105F00BF00000FBF0000A295E433F530C4333357
:10106F00335480FBE9C3134BF97E007F04EF1FAAB3
:10107F000670011E4A70F6ED1D70011CED4C70C715
:04108F00AD01AF05FB
:01109300223A
:1013BE001211547F017E0012129E7FCC1207C47F41
:0413CE00440207C40A
:1013D2001211547F017E0012129E7FCC1207C47F2D
:0413E200BE0207C47C
:10137A00E4FFFE1213BE1213D212104F8F2F121057
:06138A004FEFFEE52FFF0E
:01139000223A
:060800008B238A248925E8
:10080600E4F529F52AF52EF52DF52CF52B12137A9C
:100816008E298F2AC3E52964809480504DAB23AA84
:1008260024A925742D120484E52A152A7002152997
:10083600632AFF6329FFAC29AD2AEC12028E8F2EA4
:100846008E2D8D2C8C2BE4FFFE7DC87C40AB2EAA12
:100856002DA92CA82B120116E4FBFAF9783F1200F9
:10086600251202C78E298F2A8045AC29AD2AEC12A3
:10087600028E8F2E8E2D8D2C8C2BE4FFFE7DC87C58
:1008860040AB2EAA2DA92CA82B120116E4FBFAF9CF
:10089600783F1200251202C78E298F2A7C277D10E9
:1008A6001204CAEF2430AB23AA24A925120484AE6D
:1008B60029AF2A7C277D101204CA7E037FE8CFCD9C
:1008C600CFCECCCE1204CAEF2430AB23AA24A9255E
:1008D600900001120496AE29AF2A7C037DE812042B
:1008E600CA7E007F64CFCDCFCECCCE1204CAEF2411
:1008F60030AB23AA24A92590000212049690000387
:10090600742E120496AE29AF2A7C007D641204CAA6
:100916007E007F0ACFCDCFCECCCE1204CAEF2430D4
:10092600AB23AA24A925900004120496900005740E
:10093600DF120496900006744312049612043E6475
:100946002DAB23AA24A925900001706A120457240E
:10095600D0FFE434FFFE7C007D0A1204B89000024A
:1009660012045724D0FDEC34FFFCEF2DFDEE3CFCC9
:1009760012028EC004C005C006C007AB23AA24A974
:100986002590000412045724D0FFE434FFFEAD077F
:10099600FC12028E7BCD7ACC79CC783D120116D032
:1009A60003D002D001D000120025E4FBFA7980784A
:1009B600BF120116807912045724D0FFE434FFFEDB
:1009C6007C007D0A1204B8C006C00712043E24D07B
:1009D600FFE434FFFE7D641204B8D0E02FFFD0E0C0
:1009E6003EFE90000212045724D0FDEC34FFFCEFCB
:1009F6002DFDEE3CFC12028EC004C005C006C007E9
:100A0600AB23AA24A92590000412045724D0FFE49E
:100A160034FFFEAD07FC12028E7BCD7ACC79CC7802
:100A26003D120116D003D002D001D0001200258F4E
:100A36002E8E2D8D2C8C2BAF2EAE2DAD2CAC2BAB44
:100A460026AA27A92812052DAB23AA24A925120414
:100A56003EB430057420120484AB23AA24A9259041
:100A66000001120457B4301812043EFF64206004DB
:100A7600EFB42D0C900001EF12049674201204843A
:010A8600224D
:100BCD008F238B248A258926E523C39481406BE4EA
:100BDD009523F523742D120484E52375F06484E5C3
:100BED00F075F00A842430AB24AA25A926900001C3
:100BFD00120496E52375F00A84E5F0243090000286
:100C0D0012049690000112045724D0FFE434FFFE25
:100C1D007C007D0A1204B890000212045724D0FD06
:100C2D00EC34FFFCEF2DFFEE3CFE7CFF7DFF12044C
:100C3D00B8AB27AA28A929EE81C9E52375F06484EC
:100C4D002430AB24AA25A926120484E52375F0646B
:100C5D0084E5F075F00A842430AB24AA25A92690EA
:100C6D000001120496E52375F00A84E5F024309016
:100C7D00000212049690000112045724D0FFE434B0
:100C8D00FFFE7C007D0A1204B8C006C00712043EA8
:100C9D0024D0FFE434FFFE7D641204B8D0E02FFFB2
:100CAD00D0E03EFE90000212045724D0FDEC34FF3C
:100CBD00FCEF2DFFEE3CAB27AA28A9298FF01205DA
:100CCD0000AB24AA25A92612043EB43005742012C7
:100CDD000484AB24AA25A926900001120457B43030
:100CED001812043EFF64206004EFB42D0C90000137
:0A0CFD00EF12049674201204842202
:100F19008E258F268B278A288929C3E52564809405
:100F2900805035742D120484AE25AF267C007D0ACD
:100F39001204CAEF75F0FFA42430AB27AA28A92907
:100F4900900001120496AE25AF267C007D0A12049A
:100F5900CAED75F0FFA4804AAE25AF267C007D64FA
:100F69001204CAEF2430AB27AA28A929120484AE97
:100F790025AF267C007D641204CA7E007F0ACFCD8E
:100F8900CFCECCCE1204CAEF2430AB27AA28A92988
:100F9900900001120496AE25AF267C007D0A12044A
:100FA900CAED2430AB27AA28A92990000212049679
:100FB900AB27AA28A92912043EB4300574201204CB
:100FC90084AB27AA28A929900001120457B4301824
:100FD90012043EFF64206004EFB42D0C900001EF71
:090FE90012049674201204842203
:0F13F900D294C2A7D2A012139112134902115419
:090FF200D297D296C297C2962252
:07000300C297D296D29722AA
:10118800E4FEFDEFC4131313540124FF9297EF25D7
:10119800E0FFD296C2960EBE08E9D297D296309753
:1011A8000C0DEDD394C840F6C2967F0022C2967FFC
:0111B8000135
:0111B9002213
:10136200E4FFD297FED296EF25E0FFA297E4334244
:0713720007C2960EBE08EE53
:011379002251
:0312BD004480FF6B
:1012C000C292C290C2918F807F017E0012129ED284
:0B12D000927F057E0012129EC2922247
:10131400C292D290C2918F807F017E0012129ED21F
:0B132400927F057E0012129EC29222F2
:101349007F381212C07F0C1212C07F061212C07FA2
:09135900011212C07F800212C0D3
:1012DB00EF5401C4333354C01212BDE4F5287F2000
:0C12EB001213140528E528C3941040F2EB
:0112F70022D4
:1013E6008B25EF5401C4333354C02D1212BDAF25E3
:0313F600021314CB
:101116008D288B298A2A892BEF5401C4333354C076
:1011260025284480FF1212C0AB29AA2AA92B120433
:101136003EFF60191213140528E528C39410500DBC
:0E1146007401252BF52BE4352AF52A80DB22D7
:030B6A00011B006C
:10139100C2A75389F043890185128A85108CC28DB9
:0713A100D28CD2A9D2AF22C9
:03000B000211BA25
:0911BA00C0E0C0D075D000C000F7
:1011C30085128A85108CE51B54032415F8E624FF49
:0E11D30092A7051BE51BC394644003751B0027
:0711E100D000D0D0D0E032B5
:101211005374617274696E672E2E2E005265736568
:101221007474696E672E2E2E004465627567676956
:061231006E672E2E2E0058
:100B6D00020F008E0211008E010E00041500000010
:100B7D0000040A00000000020800000213000051EA
:100B8D0000E9483A7878783F4320204C3A787878D5
:100B9D003F43005100D5543A7878782E783F432062
:100BAD002046414E3A78004300E60100EB43010038
:0F0BBD000100F44300FA0100D74300FD0100E4FA
:101000001213F9120E247BFF7A1279111212372073
:10101000B31A30B3FD7BFF7A12791D1212377D1699
:10102000E4FF12127E7D147F0112127E20B2123074
:10103000B2FD7BFF7A12792A1212371213A812100E
:0F104000D820B70630B7FD1205C0120D0780C0CB
:10001E00020333E86480F8E933E83360110460F0DA
:10002E00ED33EC337009E8FCE9FDEAFEEBFF220448
:10003E0060DED3EB9FEA9EE99DE8C2E78CF0C2F743
:10004E0095F0400CE8CCF8E9CDF9EACEFAEBCFFB0F
:10005E001202FE85D0F05804700320D5B3E8047068
:10006E00075002B2D502033D92D5EC0460F7E4CC02
:10007E00C0E0C398F8603B94186008400DD0E0FBD8
:10008E00020315E4FBFAC9FC8028E830E406E4C953
:10009E00FBE4CAFCE830E305E4C9CACBFCE854072C
:1000AE006010F8C3E913F9EA13FAEB13FBEC13FC37
:1000BE00D8F130F52FC3E49CFCEF9BFFEE9AFEEDDA
:1000CE0099FDD0E0FBEF4E4D4C701222DB03020384
:1000DE003AEC2CFCEF33FFEE33FEED33FDED30E763
:1000EE00EB020315EF2BFFEE3AFEED39FDD0E0FBF0
:1000FE0050130BBB000302033DED13FDEE13FEEF99
:08010E0013FFEC13FC020315C2
:10011600EC4D6011E8497017ED33EC3304600DE4E3
:10012600FCFFFEFD22E933E8330470F802033312C4
:1001360002FE58046009E4CC2481500628500902C6
:10014600033D28400302033AC0E0EB4A7044B980FD
:1001560006D0E0FB020329EF4E701CBD8008EBFFC2
:10016600EAFEE9FD80EBE98DF0A4FEE5F00201FF71
:10017600E9CDF9EAFEEBFFEF89F0A4FCE5F0CE89C4
:10018600F0A42EFFE435F0CD89F0A42DFEE435F081
:100196008067EF4E7005BD80D780C3EF8BF0A4ACAF
:1001A600F0EE8BF0A42CFCE435F0F8EF8AF0A42CEA
:1001B600E5F038FCE433CB8DF0A42CFCE5F03BF8FD
:1001C600EE8AF0A42CFCE5F038F8E433CF89F0A4ED
:1001D6002CFCE5F038CF3400CE89F0A42FFFE5F0F3
:1001E6003EFEE433C98DF0A42EFEE5F039CD8AF04B
:1001F600A42FFFE5F03EFEE43DFD33D0E0FB5007C3
:100206000BBB000F02033DEC2CFCEF33FFEE33FE7D
:06021600ED33FD020315AB
:10021C0074F8CC6480CCC86480C8F582046043C395
:10022C00EB9FF5F0EA9E42F0E99D42F0E89C45F028
:10023C0060305018E5825FFFE582F42B5582FB504D
:10024C00210ABA001D09B90019088016E5825BFB6A
:10025C00E582F42F5582FF50090EBE00050DBD003E
:10026C00010CC3EB9FF5F0EA9E42F0E99D42F0E8E9
:0D027C009C45F06007CC4820E701B3EC2260
:1002890075F020800E75F010800575F0087D007EF0
:10029900007F003392D530D50312051FEC3340108F
:1002A900EF33FFEE33FEED33FDEC33FCD5F0ED22F9
:0E02B900E5F0247EA2D513CC92E7CDCEFF2235
:1002C700EDD2E7CD33EC3392D524814006E4FFFE2F
:1002D700FDFC22FCE4CFCECDCC24E0501174FF808E
:1002E700EDC3CC13CCCD13CDCE13CECF13CF04702B
:0702F700F030D5DE02051F07
:1002FE00E9D2E7C933E833F892D5EDD2E7CD33EC46
:07030E0033FC5002B2D522BE
:10031500EC30E7100FBF000C0EBE00080DBD000449
:100325000BEB6014A2D5EB13FCED92E7FD2274FFF5
:10033500FCFDFEFF22E480F8A2D574FF13FC7D804E
:03034500E480EF62
:03000000020738BC
:0C073800787FE4F6D8FD75813102077F60
:10034800E709F608DFFA8046E709F208DFFA803E97
:1003580088828C83E709F0A3DFFA8032E309F60884
:10036800DFFA8078E309F208DFFA807088828C83EC
:10037800E309F0A3DFFA806489828A83E0A3F608A0
:10038800DFFA805889828A83E0A3F208DFFA804C7A
:1003980080D280FA80C680D4806980F28033801051
:1003A80080A680EA809A80A880DA80E280CA8033BA
:1003B80089828A83ECFAE493A3C8C582C8CCC58332
:1003C800CCF0A3C8C582C8CCC583CCDFE9DEE78002
:1003D8000D89828A83E493A3F608DFF9ECFAA9F081
:1003E800EDFB2289828A83ECFAE0A3C8C582C8CCD7
:1003F800C583CCF0A3C8C582C8CCC583CCDFEADEF0
:10040800E880DB89828A83E493A3F208DFF980CC51
:1004180088F0EF60010E4E60C388F0ED2402B4044A
:100428000050B9F582EB2402B4040050AF232345F1
:060438008223900398737B
:10043E00BB010689828A83E0225002E722BBFE02BC
:09044E00E32289828A83E49322EF
:10045700BB010CE58229F582E5833AF583E022505A
:1004670006E92582F8E622BBFE06E92582F8E222A4
:0D047700E58229F582E5833AF583E49322BE
:10048400BB010689828A83F0225002F722BBFE0157
:02049400F32251
:10049600F8BB010DE58229F582E5833AF583E8F09C
:1004A600225006E92582C8F622BBFE05E92582C848
:0204B600F22230
:1004B800EF8DF0A4A8F0CF8CF0A428CE8DF0A42E58
:0204C800FE2212
:1004CA00C2D5EC30E709B2D5E4C39DFDE49CFCEE4D
:1004DA0030E715B2D5E4C39FFFE49EFE120547C379
:1004EA00E49DFDE49CFC800312054730D507C3E474
:0604FA009FFFE49EFE22BC
:10050000BB010A89828A83F0E5F0A3F0225006F746
:0F05100009A7F01922BBFE06F3E5F009F3192243
:0E051F00C3E49FFFE49EFEE49DFDE49CFC22ED
:10052D00BB010789828A830205A85005E9F80205F7
:0A053D009CBBFE05E9F80205B4229C
:10074400021000E493A3F8E493A34003F68001F2BB
:1007540008DFF48029E493A3F85407240CC8C333B6
:10076400C4540F4420C8834004F456800146F6DF85
:10077400E4800B0102040810204080900A87E47E84
:10078400019360BCA3FF543F30E509541FFEE4937A
:10079400A360010ECF54C025E060A840B8E493A341
:1007A400FAE493A3F8E493A3C8C582C8CAC583CA6C
:1007B400F0A3C8C582C8CAC583CADFE9DEE780BE24
:010BCC000028
:10054700BC000BBE0029EF8DF084FFADF022E4CC98
:10055700F875F008EF2FFFEE33FEEC33FCEE9DEC61
:10056700984005FCEE9DFE0FD5F0E9E4CEFD22EDA7
:10057700F8F5F0EE8420D21CFEADF075F008EF2FF1
:10058700FFED33FD4007985006D5F0F222C398FDE2
:050597000FD5F0EA227F
:0C059C00ECF608EDF608EEF608EFF6228B
:0C05A800ECF0A3EDF0A3EEF0A3EFF022C6
:0C05B400ECF208EDF208EEF208EFF22283
:00000001FF
