:0400000002002132A7
:03000B0002040CE0
:0100130032BA
:03001B00020333AA
:10007A0075218E75220075238E75240075250075ED
:10008A002600752700752800752900E4F52AF52B46
:10009A00F52CF52DF52EF52FF530F53174022423C4
:1000AA00F532E43400F533740B2423F534E43400D8
:1000BA00F53574022434F536E43400F537740F2428
:0800CA0034F538E43400F53987
:0300DB0002001E02
:03001E000200DEFF
:1000DE0012113412018690175475F0801203C2204B
:1000EE00B31E30B3FD90176075F0801203C2750811
:1000FE0016758200120131750814758201120131D4
:10010E0020B21230B2FD90176D75F0801203C2123C
:10011E00031C12038120B70630B7FD1211DF120542
:03012E008080BC12
:101754005374617274696E672E2E2E005265736520
:101764007474696E672E2E2E00446562756767690E
:061774006E672E2E2E0010
:10179000483A787878DF4320204C3A787878DF43ED
:1017A00000543A7878782E78DF43202046414E3A2C
:0217B0007800BF
:06005000E478FFF6D8FD84
:10013100AF82C00712051C7582A012052CD0078F53
:100141008212052C85088212052C12052590012C9E
:10015100020CABAF82C00712051C7582A012052CE0
:10016100D0078F8212052C12051C7582A112052C55
:10017100120562AF82C00712052590012C120CAB4B
:05018100D0078F82226F
:10002E0079F7E94400601B7A01901790782375A048
:10003E0000E493F2A308B8000205A0D9F4DAF27531
:02004E00A0FF11
:100186009000017457F09000027465F090000374BB
:100196006CF09000047463F0900005746FF09000AA
:1001A60006746DF09000077465F09000087420F0F6
:1001B6009000097474F090000A746FF090000B744C
:1001C60020F090000C7441F090000DF090000E7439
:1001D60055F090000F7443F09000107453F09000A7
:1001E60011E4F09000127420F0900013F0900014C7
:1001F600F0900015F0900016F0900017744EF090F5
:100206000018746FF0900019742EF090001A742084
:10021600F090001B7433F090001C7431F090001DB8
:100226007420F090001EF090001FF0900020F090D7
:100236000021F0900022E4F07F00EF2401F582E433
:100246003400F583E0F50D8F0C758200C0071204AB
:10025600B9D007BF070050248F0674052EFEFC3365
:1002660095E0FDEC2412F582ED3400F583E0F50D02
:100276008E0C758201C0071204B9D007900032C0F7
:1002860007120CABD0070FBF100040AE9000011252
:100296000CC87F007E00EE2401FCE43400FD8E03D2
:1002A6000BEB3395E0FAEB2401F582EA3400F58393
:1002B600E08C828D83F0EE2412FCE43400FDEB2406
:1002C60012F582EA3400F583E08C828D83F00EBE4F
:1002D600100040C29000107420F0900021F0750FBD
:1002E60001751000751100750E00758200C00712A9
:1002F60004D2750F12751000751100750E00758207
:10030600011204D2900019120CABD0070FBF1000D7
:06031600500302029A22CE
:0600D200750900750A002B
:10031C00D29453890F438910758B00758D00C28F51
:10032C00D28ED2ABD2AF22C0E0C0F0C082C083C0AC
:10033C0007C006C005C004C0D075D000E50975F033
:10034C0002A42445F582740035F0F583E0FEA3E0A9
:10035C00FF4E600E8E047D008C8B8F067F008E8D81
:10036C00B294D0D0D004D005D006D007D083D082A0
:10037C00D0F0D0E032E50A248FF582E43400F58326
:10038C00E0FFBFFF02802A8F09050AE50A248FF5DA
:10039C0082E43400F583E075F07DA4F58285F0836A
:1003AC00120CAB050AC28E900005120CABD28E80DB
:0603BC00C4C28ED294229F
:1017B20000008CF8F3F85BF9B8F915FA67FAB9FA90
:1017C20004FB4BFB90FBCFFB10FC44FC79FCACFC14
:1017D200DCFC09FD34FD5CFD82FDA6FDC8FDE8FDD3
:1017E20006FE22FE3DFE56FE6EFE85FE9AFEAEFE11
:1017F200C1FED3FEE4FEF4FE03FF19041B0414042D
:101802001B041D041401120111010D0119041B0412
:1018120014041404000414011401140116010D012E
:1018220016010D0119041B0414041B041D041401E8
:10183200120111010D0119041B0414041404000403
:101842000D010D010C010D010C010D011401160118
:101852000D0116011D041D041B04140116010D01C6
:1018620016011B041B040D041801160114011601B4
:101872000D0116010D040F021802160114020001D7
:0518820014020F04FF39
:1003C200AD82AE83AFF0758200C007C006C00512D1
:1003D2000495758201120495D005D006D007750EDA
:1003E200038D0F8E108F117582001204D290012C92
:0303F200020CAB4F
:0300D800750B00A5
:1003F500C2A75389F043890185238A85218CC28D43
:10040500D28CD2A9D2AF22C0E0C007C006C001C0BD
:10041500D075D00085238A85218C7403550B24263D
:10042500F9E724FF92A7050B749C250B5003750B68
:0C04350000D0D0D001D006D007D0E032BB
:100056007800E84400600A790175A000E4F309D845
:10006600FC7822E84400600C7901900001E4F0A3DA
:04007600D8FCD9FADF
:10044100AF82C292C290C2918F80900001120CAB18
:10045100D292900005120CABC29222AF82C292D20C
:1004610090C2918F80900001120CABD29290000546
:10047100120CABC2922275823812044175820C12A1
:10048100044175820612044175820112044175828C
:1004910080020441E5825401030354C0FF74804F7C
:1004A100F5821204417F00758220C00712045CD0DE
:1004B100070FBF100040F022E5825401030354C02E
:1004C100FFE50C2F4480F582120441850D82020460
:1004D1005CE5825401030354C0FFE50E2F4480F50F
:1004E10082120441AF0EAC0FAD10AE118C828D8320
:1004F1008EF0121160FB60228B82C007C006C0051E
:10050100C00412045CD004D005D006D0070FBF1080
:100511000050070CBC00D50D80D222D297D296C2D2
:1005210097C29622C297D296D29722AF827E00EFCF
:1005310023540124FF92978F05ED2DFFD296C29689
:100541000EBE080040E9D297D2967F0030970C0F7B
:10055100EF243750F7C29675820022C29675820148
:10056100227F00D2977E00D2968F05ED2DFDA297B6
:10057100E4334DFFC2960EBE080040EB8F82227518
:1005810082001201548532538533547555007556D6
:100591002E755700755840120CF8758201120154DE
:1005A100853453853554755500755630755700752A
:1005B1005840120CF8AD36AE377F00753A2A8F3BA2
:1005C100753C408D828E838FF0120821853882859B
:1005D1003983AF2574302FF0853082853183120C39
:1005E1006AAC82AD83AEF0FFC004C005C006C0078F
:1005F100852A82852B83852CF0E52D1215D6E58180
:1006010024FCF581E58224FF9200B39201E43324B6
:10061100FF92A0852E82852F83120C6AAC82AD8356
:10062100AEF0FFC007C006C005C004C02AC02BC081
:100631002CC02D8C828D838EF0EF1215D6E581248E
:10064100FCF581D004D005D006D007E58224FF92C5
:10065100014003300004C2018002D201A201E4334F
:1006610024FF9294C004C005C006C007852A828574
:100671002B83852CF0E52D121412AC82AD83AEF0E4
:10068100FFE58124FCF5818C828D838EF0EF120CC5
:1006910077AE82AF83C3EE9406EF648094804011FD
:1006A10075250375260175270175280175290180B6
:1006B10047C3EE9404EF6480948040117525027560
:1006C1002601752701752801752900802BC3EE9439
:1006D10002EF64809480401175250175260175270C
:1006E10001752800752900800F7525007526007594
:1006F1002700752800752900750F237510007511E5
:1007010000750E007582001204D2750F3475100049
:10071100751100750E007582010204D2C295900018
:1007210040120CE6D2957E007F003095260EBE0069
:10073100010F900001C007C006120CABD006D00714
:10074100C374059E74808FF063F08095F050DB7563
:1007510082002275820122AF827D007E00C295EF68
:10076100540124FF9295900006C007C006C00512EF
:100771000CE6D005D006D007D295EFC313FF0DBD0F
:1007810000010EC3ED9408EE940040D1227F007D5C
:10079100087E00C295D295900001C007C006C00531
:1007A100120CE6D005D006D007A295E4330354809D
:1007B100FCEFC3134CFF900004C007C006C0051234
:1007C1000CE6D005D006D0071DBDFF011EED4E7011
:1007D100C28F822212071D900001120CAB7582CCD0
:1007E10012075875824402075812071D9000011222
:1007F1000CAB7582CC1207587582BE0207581207DE
:10080100D51207EA12078EAF82C00712078EAE8299
:10081100D0078E05E4FEFCEF4EF582EC4DF5832208
:1008210085823D85833E85F03F1207FFAB82E583DC
:10083100FC30E77B853D82853E83853FF0742D1238
:1008410015BBEB24FFF9EC34FFFAE9F4F582EAF485
:10085100F583120C6AA882A983AAF0FFC000C00127
:10086100C002C00790000075F0C87440121446AA77
:1008710082AD83AEF0FFE58124FCF581E4C0E0C0E8
:10088100E0C0E0743FC0E08A828D838EF0EF1216E3
:1008910006AA82AD83AEF0FFE58124FCF5818A8250
:1008A1008D838EF0EF120C77AE82AF830209338B0A
:1008B100828C83120C6AAA82AB83ACF0FDC002C0A9
:1008C10003C004C00590000075F0C87440121446BE
:1008D100AA82AB83ACF0FDE58124FCF581E4C0E0A4
:1008E100C0E0C0E0743FC0E08A828B838CF0ED12DF
:1008F1001606AA82AB83ACF0FDE58124FCF5818A62
:10090100828B838CF0ED120C77AE82AF837516105B
:10091100751727C007C0061213DAAC82AD83D00663
:10092100D00774302CFC853D82853E83853FF012D3
:1009310015BB7401253DF54CE4353EF54D853F4E23
:100941007516107517278E828F83C007C006121186
:100951007C7516E87517031213DAA982D006D00741
:10096100743029854C82854D83854EF01215BB74F8
:1009710002253DF540E4353EF541853F427516E8D7
:100981007517038E828F83C007C00612117C7516FE
:10099100647517001213DAA982D006D007743029C2
:1009A1008540828541838542F01215BB7403253D44
:1009B100F8E4353EF9AA3F888289838AF0742E12C1
:1009C10015BB7404253DF543E4353EF544853F45AB
:1009D1007516647517008E828F8312117C75160A45
:1009E1007517001213DAAE8274302E854382854466
:1009F100838545F01215BB7405253DFAE4353EFEAD
:100A0100AF3F8A828E838FF074DF1215BB74062587
:100A11003DFAE4353EFEAF3F8A828E838FF0744308
:100A21001215BB853D82853E83853FF0121160FF23
:100A3100BF2D028003020AF2854C82854D83854ECB
:100A4100F01211607E0024D0F516EE34FFF51790F8
:100A5100000A121143AE82AF8385408285418385AE
:100A610042F01211607A0024D0F9EA34FFFAE92E3B
:100A7100F546EA3FF5478543828544838545F01273
:100A810011607A0024D0F582EA34FFF583120C6AF2
:100A9100A882A983AAF0FFC000C001C002C00790CC
:100AA100CCCD75F0CC743D121446858248858349BE
:100AB10085F04AF54BE58124FCF581854682854721
:100AC10083120C6AA882AA83AEF0FFC048C049C055
:100AD1004AC04B88828A838EF0EF121606A982AA39
:100AE10083AEF0FFE58124FCF581EFB2E7FF020B55
:100AF100D3853D82853E83853FF01211607D0024C0
:100B0100D0F516ED34FFF517900064121143AC8255
:100B1100AD83854C82854D83854EF01211607B003B
:100B210024D0F516EB34FFF51790000AC005C00478
:100B3100121143A882AB83D004D005E82CFCEB3D15
:100B4100FD8540828541838542F01211607B00243E
:100B5100D0F8EB34FFFBE82CF548EB3DF549854334
:100B6100828544838545F01211607B0024D0F58293
:100B7100EB34FFF583120C6AA882AB83ACF0FDC0A5
:100B810000C003C004C00590CCCD75F0CC743D12FB
:100B9100144685824F85835085F051F552E58124B5
:100BA100FCF581854882854983120C6AA882AB8352
:100BB100ACF0FDC04FC050C051C05288828B838CB5
:100BC100F0ED121606A982AA83AEF0FFE58124FC9E
:100BD100F581AB3AAC3BAD3C8B828C838DF0E91255
:100BE10015BBA3EA1215BBA3EE1215BBA3EF121599
:100BF100BB853D82853E83853FF0121160FFBF308A
:100C01000E853D82853E83853FF074201215BB859C
:100C11004C82854D83854EF0121160FFBF304985AE
:100C21003D82853E83853FF0121160FFBF20028027
:100C310010853D82853E83853FF0121160FFBF2DF7
:100C410027853D82853E83853FF0121160FF854CEB
:100C510082854D83854EF01215BB853D82853E838D
:100C6100853FF074200215BB22AC83AB827A0079F8
:100C710000748E0211BB12154A700AE58245834544
:100C8100F0700122E430D112F4700BE5F0F470063B
:100C9100E58330E7012290800022700AE5F07006BA
:100CA100E58320E70122907FFF22AE82AF83EE4FE2
:100CB10060147C7B7D001CBCFF011DEC4D70F71E98
:100CC100BEFF011F80E822AE82AF83EE4F60159018
:100CD10003E8C007C006120CABD006D0071EBEFF4A
:100CE100011F80E722AE82AF838E048F051EBEFFF7
:100CF100011FEC4D70F322AF82BF81005003020D42
:100D0100ED8F06C3E49EFEAB53AC54AD558B828C84
:100D1100838DF0742D1215BB74012BF559E43CF54C
:100D21005A8D5B8E027E007516648E178A828E83C1
:100D3100C006C005C004C003C00212117C75160AAA
:100D41007517001213DAA882D002D003D004D0059F
:100D5100D006743028F8855982855A83855BF01254
:100D610015BB74022BFBE43CFC75160A7517008A4F
:100D7100828E83C005C004C003C00012117CAA8208
:100D8100D000D003D004D00574302AFA8B828C8332
:100D91008DF01215BBAC56AD57AE587B00E824D090
:100DA100F516EB34FFF51790000AC006C005C00424
:100DB100C002121143A982AB83D002D004D005D066
:100DC100068A007A00E824D0F8EA34FFFAE829F923
:100DD100EA3BFBC3E499F9E49BFB8C828D838EF0A3
:100DE100E91215BBA3EB1215BB020F1FAC53AD5497
:100DF100AE557B007516648B178F828B83C007C03D
:100E010006C005C004C0031213DAA982D003D004BE
:100E1100D005D006D007743029F989598C828D8389
:100E21008EF0E5591215BB74012CF55CE43DF55DBE
:100E31008E5E7516647517008F828B83C007C0069E
:100E4100C005C004C00312117C75160A7517001283
:100E510013DAA982D003D004D005D006D0077430AC
:100E610029F9855C82855D83855EF01215BB74026C
:100E71002CFCE43DFD75160A7517008F828B83C02B
:100E810006C005C004C00112117CAB82D001D004A0
:100E9100D005D00674302BFB8C828D838EF0121519
:100EA100BBAD56AE57AF58AA597C00EA24D0F5160F
:100EB100EC34FFF517900064C007C006C005C003FD
:100EC100C001121143AA82AC83D001D003890079F9
:100ED10000E824D0F516E934FFF51790000AC004A4
:100EE100C003C002121143A882A983D002D003D04B
:100EF10004D005D006D007E82AFAE93CFC8B017B37
:100F010000E924D0F9EB34FFFBE92AFAEB3CFC8D34
:100F1100828E838FF0EA1215BBA3EC1215BBAD5381
:100F2100AE54AF558D828E838FF0121160FCBC30B0
:100F31000B8D828E838FF074201215BB74012DFAF4
:100F4100E43EFB8F048A828B838CF0121160F9B925
:100F5100303A8D828E838FF0121160F9B9200280B0
:100F61000D8D828E838FF0121160F9B92D1E8D8245
:100F71008E838FF0121160F98A828B838CF01215A7
:100F8100BB8D828E838FF074200215BB2285826215
:100F9100E583F56320E703021020AB5FAC60AD6130
:100FA1008B828C838DF0742D1215BB74012BF8E4A8
:100FB1003CF98D0275160A75170085628285638377
:100FC100C005C004C003C002C001C0001213DAAEE4
:100FD10082D000D001D002D003D004C3E49E2430DB
:100FE100888289838AF01215BB74022BFBE43CFCD6
:100FF10075160A751700856282856383C004C00374
:1010010012117CAE82AF83D003D004D005C3E49E1D
:101011002430FE8B828C838DF01215BB0210C5AD7E
:101021005FAE60AF61751664751700856282856376
:1010310083C007C006C0051213DAAB82D005D00603
:10104100D00774302B8D828E838FF01215BB740103
:101051002DFAE43EFB8F04751664751700856282D4
:10106100856383C007C006C005C004C003C0021267
:10107100117C75160A7517001213DAA882D002D0F6
:1010810003D004D005D0067430288A828B838CF07B
:101091001215BB74022DFDE43EFE75160A7517008C
:1010A100856282856383C006C00512117CAB82AC68
:1010B10083D005D006D00774302BFB8D828E838FB1
:1010C100F01215BBAD5FAE60AF618D828E838FF084
:1010D100121160FCBC300B8D828E838FF074201254
:1010E10015BB74012DFAE43EFB8F048A828B838C3D
:1010F100F0121160F9B9303A8D828E838FF012119E
:1011010060F9B92002800D8D828E838FF0121160FB
:10111100F9B92D1E8D828E838FF0121160F98A82AA
:101121008B838CF01215BB8D828E838FF07420021D
:1011310015BB22D294C2A7D2A01203F512047702E2
:10114100071DE5828516F0A4C582C0F08517F0A4BD
:0F115100D0F025F0C5838516F0A42583F5832201
:0D0021007581631215A5E582600302001EC3
:1011600020F71430F6148883A88220F507E6A883B8
:1011700075830022E280F7E49322E022C2D5E58362
:1011800030E70DD2D5E4C39582F582E49583F583EB
:10119000E51730E70BE4C39516F516E49517F51738
:1011A00012138D30D50BE4C39582F582E49583F557
:1011B0008322FCABF0AA83A982749EF582C2D1EC93
:1011C00030E716D2D1E9F42401F9EAF43400FAEB5D
:1011D000F43400FBECF43400FC1215170216A8C21C
:1011E00002C203C2047512207513207514207515F0
:1011F0000030B7FD90177A75F0801203C220B40357
:10120000021372A202200301B34016750F2375105A
:1012100000751100750E007582001204D2A20292B0
:101220000320B70530B7FDB2023002030212D1B27B
:1012300004300414750F12751000751140750E02FC
:101240007582001204D28012750F2375100075117B
:1012500000750E007582001204D220B63430B6FD3F
:10126000052EE4B52E02052FC37480952E7480855B
:101270002FF063F08095F05006752E80752F008555
:10128000325F853360756100852E82852F83120F52
:101290008E30B50302136930B5FD152E74FFB52EDF
:1012A00002152FC3E52E9530E52F64808531F0635C
:1012B000F08095F0500685302E85312F85325F8580
:1012C0003360756100852E82852F83120F8E021385
:1012D00069B204300414750F127510007511407551
:1012E0000E0B7582001204D28012750F2375100048
:1012F000751100750E007582001204D220B63630CA
:10130000B6FD0530E4B530020531C3E52E9530E574
:101310002F64808531F063F08095F05006852E3083
:10132000852F3185345F8535607561008530828514
:101330003183120F8E20B53130B5FD153074FFB5F5
:1013400030021531C3E53094C9E5316480947F5093
:10135000067530C97531FF85345F8535607561006C
:10136000853082853183120F8E90012C120CAB02D6
:1013700011FD90178575F0801203C2852E087582C5
:0D1380000012013185300875820102013133
:10177A0053657474696E672E2E2E005772697469E8
:06178A006E672E2E2E00FA
:10138D00E516451760467A01E51625E0F516E517D1
:10139D00334012F517E5829516E583951740030A3C
:1013AD0080E6C3E51713F517E51613F516C3E582A9
:1013BD009516F5F0E58395174005F58385F082C305
:1013CD00E51713F517E51613F516DAE122C2D5E583
:1013DD008330E70DD2D5E4C39582F582E49583F58C
:1013ED0083E51730E70DB2D5E4C39516F516E495F0
:1013FD0017F51712141D30D50BE4C39582F582E451
:10140D009583F58322A8811818C6B2E7C602160681
:10141D007A10E4FBFCE58225E0F582E58333F58364
:10142D00EB33FBEC33FCEB9516F5F0EC9517400622
:10143D00FCABF0438201DADD221214E9BC00030299
:10144D0016C9EF60FA30D502B2D1E583B4FF0302BD
:10145D0016DFE582B4FF030216DF258340072482E1
:10146D00400B0216C924831450030216DFF582EADD
:10147D008DF0A4A8F0EA8EF0A428F8E435F0F9EB8D
:10148D008DF0A428E935F0F9E433CA8FF0A429F9D9
:10149D00EA35F0FAEBF88EF0A429F9EA35F0FAE422
:1014AD0033FBEC8DF0A429F9EA35F0FAE43BFBE8C7
:1014BD008FF0A42AFAEB35F0FBE433CCFD8EF0A4CB
:1014CD002AFAEB35F0FBE43CFCED8FF0A42BFBECA2
:1014DD0035F0FC20E7031215170216A8AA82AB837C
:1014ED00A2F73392D1F5826002D2F7ACF0E58124F8
:1014FD00F9F8E6FD08E6FE0886F008E6A2F7339255
:10150D00D5F5836002D2F7AFF0227804EC7011E5C7
:10151D008224F8500AF582E4C9CACBFCD8EF22EC3C
:10152D007820058220E713D5820122C3E933F9EA39
:10153D0033FAEB33FBEC33FCD8EA1582221215A9F2
:10154D00C3749E95824039790012171130D126E966
:10155D00F42401F582EAF43400F583EBF43400F55C
:10156D00F0ECF43400700AE582458345F0700122F9
:10157D00E430E70F22EC20E71489828A838BF02276
:10158D0030D10AE4F582F583F5F074802274FFF50D
:10159D0082F583F5F0747F2275820022AA82AB83D7
:1015AD00A2F73392D1F5826002D2F7ACF02220F788
:1015BD001130F6138883A88220F509F6A883758368
:1015CD00002280FEF280F5F022FFA8811818121675
:1015DD007DD2D133E6400730E70B7582002220E73C
:1015ED000675820122C2D112165FE97003F58222BF
:1015FD0020D101B3E433F582221214E97900E58399
:10160D00B58202800D50031216F7E583C395821241
:10161D001711E5D0C465D020E117EA2DFAEB3EFB9A
:10162D00EC3FFC50097401121711EC4480FC0216BA
:10163D00A8C3EA9DFAEB9EFBEC9FFC500FC3E49907
:10164D00F9E49AFAE49BFBE49CFCB2D11215170263
:10165D0016A87901AA82E68F82B5821318E6B5F035
:10166D000E18E6B5830918E68A82B5820279002242
:10167D00B4800FE5F0700AE5837006E58270027F95
:10168D0000EFB6801518B6001018B6000B18B6008E
:10169D000608080876002208080822B98003EA1314
:1016AD00B34010EA2401FAE43BFBE43CFC50047C1B
:1016BD00800582BC000EBB000BBA0008E4F5F0F506
:1016CD0083F58222A2D1E582138CF092F78B838A67
:1016DD008222E4F583F58275F080F4A2D11322E421
:1016ED00F583F58275F0C0747F22E582C583F5829E
:1016FD00A2D133A2D592D11392D5ECCFFCEBCEFB78
:10170D00EACDFA226040F82582500274FFF582E896
:10171D0024F8501ECCCBCAF9E4CC24F85014CBCA13
:10172D00F9E4CB24F8500BCAF9E4CA24F850037934
:10173D00002224086010F8C3EC13FCEB13FBEA1332
:07174D00FAE913F9D8F122BB
:00000001FF
