:0400000002002132A7
:03000B0002040CE0
:0100130032BA
:03001B00020333AA
:10007A0075218E75220075238E75240075250075ED
:10008A002600752700752800752900E4F52AF52B46
:10009A00F52CF52DF52EF52FF530F53174022423C4
:1000AA00F532E43400F533740B2423F534E43400D8
:1000BA00F53574022434F536E43400F537740F2428
:0800CA0034F538E43400F53987
:0300DB0002001E02
:03001E000200DEFF
:1000DE0012110012018690172075F0801203C220B3
:1000EE00B31E30B3FD90172C75F0801203C2750845
:1000FE0016758200120131750814758201120131D4
:10010E0020B21230B2FD90173975F0801203C21270
:10011E00031C12038120B70630B7FD1211AB120576
:03012E008080BC12
:101720005374617274696E672E2E2E005265736554
:101730007474696E672E2E2E004465627567676942
:061740006E672E2E2E0044
:10175C00483A787878DF4320204C3A787878DF4321
:10176C0000543A7878782E78DF43202046414E3A60
:02177C007800F3
:06005000E478FFF6D8FD84
:10013100AF82C00712051C7582A012052CD0078F53
:100141008212052C85088212052C12052590012C9E
:10015100020C77AF82C00712051C7582A012052C14
:10016100D0078F8212052C12051C7582A112052C55
:10017100120562AF82C00712052590012C120C777F
:05018100D0078F82226F
:10002E0079F7E94400601B7A0190175C782375A07C
:10003E0000E493F2A308B8000205A0D9F4DAF27531
:02004E00A0FF11
:100186009000017457F09000027465F090000374BB
:100196006CF09000047463F0900005746FF09000AA
:1001A60006746DF09000077465F09000087420F0F6
:1001B6009000097474F090000A746FF090000B744C
:1001C60020F090000C7441F090000DF090000E7439
:1001D60055F090000F7443F09000107453F09000A7
:1001E60011E4F09000127420F0900013F0900014C7
:1001F600F0900015F0900016F0900017744EF090F5
:100206000018746FF0900019742EF090001A742084
:10021600F090001B7433F090001C7431F090001DB8
:100226007420F090001EF090001FF0900020F090D7
:100236000021F0900022E4F07F00EF2401F582E433
:100246003400F583E0F50D8F0C758200C0071204AB
:10025600B9D007BF070050248F0674052EFEFC3365
:1002660095E0FDEC2412F582ED3400F583E0F50D02
:100276008E0C758201C0071204B9D007900032C0F7
:1002860007120C77D0070FBF100040AE9000011286
:100296000C947F007E00EE2401FCE43400FD8E0306
:1002A6000BEB3395E0FAEB2401F582EA3400F58393
:1002B600E08C828D83F0EE2412FCE43400FDEB2406
:1002C60012F582EA3400F583E08C828D83F00EBE4F
:1002D600100040C29000107420F0900021F0750FBD
:1002E60001751000751100750E00758200C00712A9
:1002F60004D2750F12751000751100750E00758207
:10030600011204D2900019120C77D0070FBF10000B
:06031600500302029A22CE
:0600D200750900750A002B
:10031C00D29453890F438910758B00758D00C28F51
:10032C00D28ED2ABD2AF22C0E0C0F0C082C083C0AC
:10033C0007C006C005C004C0D075D000E50975F033
:10034C0002A42445F582740035F0F583E0FEA3E0A9
:10035C00FF4E600E8E047D008C8B8F067F008E8D81
:10036C00B294D0D0D004D005D006D007D083D082A0
:10037C00D0F0D0E032E50A248FF582E43400F58326
:10038C00E0FFBFFF02802A8F09050AE50A248FF5DA
:10039C0082E43400F583E075F07DA4F58285F0836A
:1003AC00120C77050AC28E900005120C77D28E8043
:0603BC00C4C28ED294229F
:10177E0000008CF8F3F85BF9B8F915FA67FAB9FAC4
:10178E0004FB4BFB90FBCFFB10FC44FC79FCACFC48
:10179E00DCFC09FD34FD5CFD82FDA6FDC8FDE8FD07
:1017AE0006FE22FE3DFE56FE6EFE85FE9AFEAEFE45
:1017BE00C1FED3FEE4FEF4FE03FF19041B04140461
:1017CE001B041D041401120111010D0119041B0447
:1017DE0014041404000414011401140116010D0163
:1017EE0016010D0119041B0414041B041D0414011D
:1017FE00120111010D0119041B0414041404000438
:10180E000D010D010C010D010C010D01140116014C
:10181E000D0116011D041D041B04140116010D01FA
:10182E0016011B041B040D041801160114011601E8
:10183E000D0116010D040F0218021601140200010B
:05184E0014020F04FF6D
:1003C200AD82AE83AFF0758200C007C006C00512D1
:1003D2000495758201120495D005D006D007750EDA
:1003E200038D0F8E108F117582001204D290012C92
:0303F200020C7783
:0300D800750B00A5
:1003F500C2A75389F043890185238A85218CC28D43
:10040500D28CD2A9D2AF22C0E0C007C006C001C0BD
:10041500D075D00085238A85218C7403550B24263D
:10042500F9E724FF92A7050B749C250B5003750B68
:0C04350000D0D0D001D006D007D0E032BB
:100056007800E84400600A790175A000E4F309D845
:10006600FC7822E84400600C7901900001E4F0A3DA
:04007600D8FCD9FADF
:10044100AF82C292C290C2918F80900001120C774C
:10045100D292900005120C77C29222AF82C292D240
:1004610090C2918F80900001120C77D2929000057A
:10047100120C77C2922275823812044175820C12D5
:10048100044175820612044175820112044175828C
:1004910080020441E5825401030354C0FF74804F7C
:1004A100F5821204417F00758220C00712045CD0DE
:1004B100070FBF100040F022E5825401030354C02E
:1004C100FFE50C2F4480F582120441850D82020460
:1004D1005CE5825401030354C0FFE50E2F4480F50F
:1004E10082120441AF0EAC0FAD10AE118C828D8320
:1004F1008EF012112CFB60228B82C007C006C00552
:10050100C00412045CD004D005D006D0070FBF1080
:100511000050070CBC00D50D80D222D297D296C2D2
:1005210097C29622C297D296D29722AF827E00EFCF
:1005310023540124FF92978F05ED2DFFD296C29689
:100541000EBE080040E9D297D2967F0030970C0F7B
:10055100EF243750F7C29675820022C29675820148
:10056100227F00D2977E00D2968F05ED2DFDA297B6
:10057100E4334DFFC2960EBE080040EB8F82227518
:1005810082001201548532538533547555007556D6
:100591002E755700755840120CC475820112015412
:1005A100853453853554755500755630755700752A
:1005B1005840120CC4AD36AE377F00753A2A8F3BD6
:1005C100753C408D828E838FF01207ED85388285D0
:1005D1003983AF2574302FF0853082853183120C39
:1005E10036AC82AD83AEF0FFC004C005C006C007C3
:1005F100852A82852B83852CF0E52D1215A2E581B4
:1006010024FCF581E58224FFB39200E43324FF92B8
:10061100A0852E82852F83120C36AC82AD83AEF07D
:10062100FFC004C005C006C007852A82852B8385CB
:100631002CF0E52D1213DEAC82AD83AEF0FFE58127
:1006410024FCF5818C828D838EF0EF120C43AE82F7
:10065100AF83C3EE9406EF64809480401175250347
:100661007526017527017528017529018047C3EE9B
:100671009404EF64809480401175250275260175FC
:100681002701752801752900802BC3EE9402EF64C0
:100691008094804011752501752601752701752803
:1006A10000752900800F75250075260075270075D6
:1006B1002800752900750F23751000751100750E3E
:1006C100007582001204D2750F3475100075110087
:1006D100750E007582010204D2C295900040120C81
:1006E100B2D2957E007F003095260EBE00010F909C
:1006F1000001C007C006120C77D006D007C37405ED
:100701009E74808FF063F08095F050DB758200223B
:1007110075820122AF827D007E00C295EF540124D3
:10072100FF9295900007C007C006C005120CB2D019
:1007310005D006D007D295EFC313FF0DBD00010E02
:10074100C3ED9408EE940040D1227F007D007E002D
:100751007B087C00C29574012DF9E43EFAD295091B
:10076100B900010A740129FDE43AFEA295E433FAC5
:10077100EFC313F9EA03548049FF900005C007C095
:1007810006C005C004C003120CB2D003D004D005CA
:10079100D006D0071BBBFF011CEB4C70B78F822228
:1007A1001206DA900001120C777582CC12071575CA
:1007B10082440207151206DA900001120C77758245
:1007C100CC1207157582BE0207151207A11207B6D2
:1007D10012074BAF82C00712074BAE82D0078E05BE
:1007E100E4FEFCEF4EF582EC4DF5832285823D85DA
:1007F100833E85F03F1207CBAB82E583FC30E77B7C
:10080100853D82853E83853FF0742D121587EB244B
:10081100FFF9EC34FFFAE9F4F582EAF4F583120CFE
:1008210036A882A983AAF0FFC000C001C002C00798
:1008310090000075F0C87440121412AA82AD83AE04
:10084100F0FFE58124FCF581E4C0E0C0E0C0E07484
:100851003FC0E08A828D838EF0EF1215D2AA82AD5D
:1008610083AEF0FFE58124FCF5818A828D838EF0D1
:10087100EF120C43AE82AF830208FF8B828C83128E
:100881000C36AA82AB83ACF0FDC002C003C004C029
:100891000590000075F0C87440121412AA82AB834F
:1008A100ACF0FDE58124FCF581E4C0E0C0E0C0E0EE
:1008B100743FC0E08A828B838CF0ED1215D2AA823C
:1008C100AB83ACF0FDE58124FCF5818A828B838CBE
:1008D100F0ED120C43AE82AF83751610751727C069
:1008E10007C0061213A6AC82AD83D006D0077430C0
:1008F1002CFC853D82853E83853FF012158774016E
:10090100253DF54CE4353EF54D853F4E7516107588
:1009110017278E828F83C007C0061211487516E80B
:100921007517031213A6A982D006D0077430298542
:100931004C82854D83854EF01215877402253DF555
:1009410040E4353EF541853F427516E87517038E43
:10095100828F83C007C0061211487516647517008F
:100961001213A6A982D006D007743029854082854A
:1009710041838542F01215877403253DF8E4353E25
:10098100F9AA3F888289838AF0742E12158774042C
:10099100253DF543E4353EF544853F4575166475BF
:1009A10017008E828F8312114875160A751700126F
:1009B10013A6AE8274302E8543828544838545F02B
:1009C1001215877405253DFAE4353EFEAF3F8A8254
:1009D1008E838FF074DF1215877406253DFAE43596
:1009E1003EFEAF3F8A828E838FF074431215878556
:1009F1003D82853E83853FF012112CFFBF2D028081
:100A010003020ABE854C82854D83854EF012112C5E
:100A11007E0024D0F516EE34FFF51790000A12116E
:100A21000FAE82AF838540828541838542F01211EA
:100A31002C7A0024D0F9EA34FFFAE92EF546EA3F90
:100A4100F5478543828544838545F012112C7A0050
:100A510024D0F582EA34FFF583120C36A882A983EB
:100A6100AAF0FFC000C001C002C00790CCCD75F054
:100A7100CC743D12141285824885834985F04AF56C
:100A81004BE58124FCF581854682854783120C362E
:100A9100A882AA83AEF0FFC048C049C04AC04B88B3
:100AA100828A838EF0EF1215D2A982AA83AEF0FF5B
:100AB100E58124FCF581EFB2E7FF020B9F853D82C2
:100AC100853E83853FF012112C7D0024D0F516ED73
:100AD10034FFF51790006412110FAC82AD83854C81
:100AE10082854D83854EF012112C7B0024D0F516A2
:100AF100EB34FFF51790000AC005C00412110FA8CE
:100B010082AB83D004D005E82CFCEB3DFD8540820F
:100B11008541838542F012112C7B0024D0F8EB34FF
:100B2100FFFBE82CF548EB3DF5498543828544837D
:100B31008545F012112C7B0024D0F582EB34FFF5B2
:100B410083120C36A882AB83ACF0FDC000C003C099
:100B510004C00590CCCD75F0CC743D121412858281
:100B61004F85835085F051F552E58124FCF581854F
:100B71004882854983120C36A882AB83ACF0FDC054
:100B81004FC050C051C05288828B838CF0ED12153A
:100B9100D2A982AA83AEF0FFE58124FCF581AB3AAC
:100BA100AC3BAD3C8B828C838DF0E9121587A3EAB7
:100BB100121587A3EE121587A3EF121587853D82C3
:100BC100853E83853FF012112CFFBF300E853D829B
:100BD100853E83853FF07420121587854C82854DB3
:100BE10083854EF012112CFFBF3049853D82853E31
:100BF10083853FF012112CFFBF20028010853D82BA
:100C0100853E83853FF012112CFFBF2D27853D8244
:100C1100853E83853FF012112CFF854C82854D83E3
:100C2100854EF0121587853D82853E83853FF074A0
:100C31002002158722AC83AB827A007900748E0280
:100C41001187121516700AE582458345F07001225D
:100C5100E430D112F4700BE5F0F47006E58330E76F
:100C6100012290800022700AE5F07006E58320E7FA
:100C71000122907FFF22AE82AF83EE4F60147C7B16
:100C81007D001CBCFF011DEC4D70F71EBEFF011F56
:100C910080E822AE82AF83EE4F60159003E8C00773
:100CA100C006120C77D006D0071EBEFF011F80E7D9
:100CB10022AE82AF838E048F051EBEFF011FEC4D55
:100CC10070F322AF82BF81005003020DB98F06C3BA
:100CD100E49EFEAB53AC54AD558B828C838DF07486
:100CE1002D12158774012BF559E43CF55A8D5B8E55
:100CF100027E007516648E178A828E83C006C00537
:100D0100C004C003C00212114875160A75170012FB
:100D110013A6A882D002D003D004D005D006743027
:100D210028F8855982855A83855BF01215877402EC
:100D31002BFBE43CFC75160A7517008A828E83C072
:100D410005C004C003C000121148AA82D000D0031C
:100D5100D004D00574302AFA8B828C838DF0121561
:100D610087AC56AD57AE587B00E824D0F516EB346E
:100D7100FFF51790000AC006C005C004C002121199
:100D81000FA982AB83D002D004D005D0068A007AA5
:100D910000E824D0F8EA34FFFAE829F9EA3BFBC37A
:100DA100E499F9E49BFB8C828D838EF0E91215871F
:100DB100A3EB121587020EEBAC53AD54AE557B007D
:100DC1007516648B178F828B83C007C006C005C060
:100DD10004C0031213A6A982D003D004D005D00603
:100DE100D007743029F989598C828D838EF0E559A9
:100DF10012158774012CF55CE43DF55D8E5E751668
:100E0100647517008F828B83C007C006C005C004BC
:100E1100C00312114875160A7517001213A6A9828C
:100E2100D003D004D005D006D007743029F9855CF1
:100E310082855D83855EF012158774022CFCE43D8A
:100E4100FD75160A7517008F828B83C006C005C019
:100E510004C001121148AB82D001D004D005D006E4
:100E610074302BFB8C828D838EF0121587AD56AEBC
:100E710057AF58AA597C00EA24D0F516EC34FFF597
:100E810017900064C007C006C005C003C00112115D
:100E91000FAA82AC83D001D00389007900E824D065
:100EA100F516E934FFF51790000AC004C003C0022B
:100EB10012110FA882A983D002D003D004D005D08B
:100EC10006D007E82AFAE93CFC8B017B00E924D033
:100ED100F9EB34FFFBE92AFAEB3CFC8D828E838F20
:100EE100F0EA121587A3EC121587AD53AE54AF5536
:100EF1008D828E838FF012112CFCBC300B8D828E73
:100F0100838FF0742012158774012DFAE43EFB8F54
:100F1100048A828B838CF012112CF9B9303A8D82BC
:100F21008E838FF012112CF9B92002800D8D828EE3
:100F3100838FF012112CF9B92D1E8D828E838FF0C3
:100F410012112CF98A828B838CF01215878D828E77
:100F5100838FF0742002158722858262E583F56311
:100F610020E703020FECAB5FAC60AD618B828C8339
:100F71008DF0742D12158774012BF8E43CF98D0264
:100F810075160A751700856282856383C005C004E2
:100F9100C003C002C001C0001213A6AE82D000D0AF
:100FA10001D002D003D004C3E49E24308882898317
:100FB1008AF012158774022BFBE43CFC75160A7546
:100FC1001700856282856383C004C003121148AE95
:100FD10082AF83D003D004D005C3E49E2430FE8BBE
:100FE100828C838DF0121587021091AD5FAE60AFD8
:100FF10061751664751700856282856383C007C0B9
:1010010006C0051213A6AB82D005D006D0077430F6
:101011002B8D828E838FF012158774012DFAE43E99
:10102100FB8F04751664751700856282856383C022
:1010310007C006C005C004C003C0021211487516DE
:101041000A7517001213A6A882D002D003D004D0CB
:1010510005D0067430288A828B838CF01215877430
:10106100022DFDE43EFE75160A7517008562828524
:101071006383C006C005121148AB82AC83D005D092
:1010810006D00774302BFB8D828E838FF01215876B
:10109100AD5FAE60AF618D828E838FF012112CFC3B
:1010A100BC300B8D828E838FF074201215877401F2
:1010B1002DFAE43EFB8F048A828B838CF012112C73
:1010C100F9B9303A8D828E838FF012112CF9B92043
:1010D10002800D8D828E838FF012112CF9B92D1E95
:1010E1008D828E838FF012112CF98A828B838CF082
:1010F1001215878D828E838FF0742002158722D27C
:1011010094C2A7D2A01203F51204770206DAE5828F
:101111008516F0A4C582C0F08517F0A4D0F025F0A3
:0B112100C5838516F0A42583F583220A
:0D002100758163121571E582600302001EF7
:10112C0020F71430F6148883A88220F507E6A883EC
:10113C0075830022E280F7E49322E022C2D5E58396
:10114C0030E70DD2D5E4C39582F582E49583F5831F
:10115C00E51730E70BE4C39516F516E49517F5176C
:10116C0012135930D50BE4C39582F582E49583F5BF
:10117C008322FCABF0AA83A982749EF582C2D1ECC7
:10118C0030E716D2D1E9F42401F9EAF43400FAEB91
:10119C00F43400FBECF43400FC1214E3021674C2B9
:1011AC0001C202C203751220751320751420751527
:1011BC000030B7FD90174675F0801203C220B403BF
:1011CC0002133EA201200201B34016750F237510C5
:1011DC0000751100750E007582001204D2A20192E6
:1011EC000220B70530B7FDB20130010302129DB2E7
:1011FC0003300314750F12751000751140750E0233
:10120C007582001204D28012750F237510007511AF
:10121C0000750E007582001204D220B63430B6FD73
:10122C00052EE4B52E02052FC37480952E7480858F
:10123C002FF063F08095F05006752E80752F008589
:10124C00325F853360756100852E82852F83120F86
:10125C005A30B50302133530B5FD152E74FFB52E7B
:10126C0002152FC3E52E9530E52F64808531F06390
:10127C00F08095F0500685302E85312F85325F85B4
:10128C003360756100852E82852F83120F5A0213ED
:10129C0035B203300314750F1275100075114075BB
:1012AC000E0B7582001204D28012750F237510007C
:1012BC00751100750E007582001204D220B63630FE
:1012CC00B6FD0530E4B530020531C3E52E9530E5A9
:1012DC002F64808531F063F08095F05006852E30B8
:1012EC00852F3185345F8535607561008530828549
:1012FC003183120F5A20B53130B5FD153074FFB55E
:10130C0030021531C3E53094C9E5316480947F50C7
:10131C00067530C97531FF85345F853560756100A0
:10132C00853082853183120F5A90012C120C770272
:10133C0011C990175175F0801203C2852E08758261
:0D134C000012013185300875820102013167
:1017460053657474696E672E2E2E0057726974691C
:061756006E672E2E2E002E
:10135900E516451760467A01E51625E0F516E51705
:10136900334012F517E5829516E583951740030A70
:1013790080E6C3E51713F517E51613F516C3E582DD
:101389009516F5F0E58395174005F58385F082C339
:10139900E51713F517E51613F516DAE122C2D5E5B7
:1013A9008330E70DD2D5E4C39582F582E49583F5C0
:1013B90083E51730E70DB2D5E4C39516F516E49524
:1013C90017F5171213E930D50BE4C39582F582E4BA
:1013D9009583F58322A8811818C6B2E7C60215D2EB
:1013E9007A10E4FBFCE58225E0F582E58333F58399
:1013F900EB33FBEC33FCEB9516F5F0EC9517400657
:10140900FCABF0438201DADD221214B5BC00030201
:101419001695EF60FA30D502B2D1E583B4FF030225
:1014290016ABE582B4FF030216AB2583400724827D
:10143900400B02169524831450030216ABF582EA79
:101449008DF0A4A8F0EA8EF0A428F8E435F0F9EBC1
:101459008DF0A428E935F0F9E433CA8FF0A429F90D
:10146900EA35F0FAEBF88EF0A429F9EA35F0FAE456
:1014790033FBEC8DF0A429F9EA35F0FAE43BFBE8FB
:101489008FF0A42AFAEB35F0FBE433CCFD8EF0A4FF
:101499002AFAEB35F0FBE43CFCED8FF0A42BFBECD6
:1014A90035F0FC20E7031214E3021674AA82AB8319
:1014B900A2F73392D1F5826002D2F7ACF0E581242C
:1014C900F9F8E6FD08E6FE0886F008E6A2F7339289
:1014D900D5F5836002D2F7AFF0227804EC7011E5FC
:1014E9008224F8500AF582E4C9CACBFCD8EF22EC71
:1014F9007820058220E713D5820122C3E933F9EA6E
:1015090033FAEB33FBEC33FCD8EA1582221215755A
:10151900C3749E9582403979001216DD30D126E9CF
:10152900F42401F582EAF43400F583EBF43400F590
:10153900F0ECF43400700AE582458345F07001222D
:10154900E430E70F22EC20E71489828A838BF022AA
:1015590030D10AE4F582F583F5F074802274FFF541
:1015690082F583F5F0747F2275820022AA82AB830B
:10157900A2F73392D1F5826002D2F7ACF02220F7BC
:101589001130F6138883A88220F509F6A88375839C
:10159900002280FEF280F5F022FFA88118181216A9
:1015A90049D2D133E6400730E70B7582002220E7A4
:1015B9000675820122C2D112162BE97003F5822227
:1015C90020D101B3E433F582221214B57900E58301
:1015D900B58202800D50031216C3E583C3958212AA
:1015E90016DDE5D0C465D020E117EA2DFAEB3EFB04
:1015F900EC3FFC500974011216DDEC4480FC021624
:1016090074C3EA9DFAEB9EFBEC9FFC500FC3E4996F
:10161900F9E49AFAE49BFBE49CFCB2D11214E302CC
:1016290016747901AA82E68F82B5821318E6B5F09D
:101639000E18E6B5830918E68A82B5820279002276
:10164900B4800FE5F0700AE5837006E58270027FC9
:1016590000EFB6801518B6001018B6000B18B600C2
:101669000608080876002208080822B98003EA1348
:10167900B34010EA2401FAE43BFBE43CFC50047C4F
:10168900800582BC000EBB000BBA0008E4F5F0F53A
:1016990083F58222A2D1E582138CF092F78B838A9B
:1016A9008222E4F583F58275F080F4A2D11322E455
:1016B900F583F58275F0C0747F22E582C583F582D2
:1016C900A2D133A2D592D11392D5ECCFFCEBCEFBAC
:1016D900EACDFA226040F82582500274FFF582E8CB
:1016E90024F8501ECCCBCAF9E4CC24F85014CBCA48
:1016F900F9E4CB24F8500BCAF9E4CA24F850037969
:10170900002224086010F8C3EC13FCEB13FBEA1366
:07171900FAE913F9D8F122EF
:00000001FF
