:03000000020006F5
:10005F0075218E75220075238E7524007525007508
:10006F002600752700752800752900E4F52AF52B61
:10007F00F52CF52DF52EF52FF530F53174022423DF
:10008F00F532E43400F533740B2423F534E43400F3
:10009F00F53574022434F536E43400F537740F2443
:0800AF0034F538E43400F539A2
:0300C00002000338
:030003000200C335
:1000C30012107812016B9016E475F0801203012070
:1000D300B31E30B3FD9016F075F08012030175085E
:1000E3001675820012011675081475820112011625
:1000F30020B21230B2FD9016FD75F080120301128A
:1001030005CD12063220B70630B7FD1211231204B3
:030113007380BC3A
:1016E4005374617274696E672E2E2E005265736591
:1016F4007474696E672E2E2E00446562756767697F
:061704006E672E2E2E0080
:10172000483A787878DF4320204C3A787878DF435D
:1017300000543A7878782E78DF43202046414E3A9C
:0217400078002F
:06003500E478FFF6D8FD9F
:10011600AF82C00712040F7582A012041FD0078F8A
:100126008212041F85088212041F12041890012CE3
:10013600020BEFAF82C00712040F7582A012041FD4
:10014600D0078F8212041F12040F7582A112041F9A
:10015600120455AF82C00712041890012C120BEF3F
:05016600D0078F82228A
:1000130079F7E94400601B7A01901720782375A0D3
:1000230000E493F2A308B8000205A0D9F4DAF2754C
:02003300A0FF2C
:10016B009000017457F09000027465F090000374D6
:10017B006CF09000047463F0900005746FF09000C5
:10018B0006746DF09000077465F09000087420F011
:10019B009000097474F090000A746FF090000B7467
:1001AB0020F090000C7441F090000DF090000E7454
:1001BB0055F090000F7443F09000107453F09000C2
:1001CB0011E4F09000127420F0900013F0900014E2
:1001DB00F0900015F0900016F0900017744EF09010
:1001EB000018746FF0900019742EF090001A7420A0
:1001FB00F090001B7433F090001C7431F090001DD4
:10020B007420F090001EF090001FF0900020F090F2
:10021B000021F0900022E4F07F00EF2401F582E44E
:10022B003400F583E0F50A8F09758200C0071203CD
:10023B00ACD007BF070050248F0674052EFEFC338D
:10024B0095E0FDEC2412F582ED3400F583E0F50A20
:10025B008E09758201C0071203ACD007900032C023
:10026B0007120BEFD0070FBF100040AE900001122A
:10027B000C0C7F007E00EE2401FCE43400FD8E03A9
:10028B000BEB3395E0FAEB2401F582EA3400F583AE
:10029B00E08C828D83F0EE2412FCE43400FDEB2421
:1002AB0012F582EA3400F583E08C828D83F00EBE6A
:1002BB00100040C29000107420F0900021F0750CDB
:1002CB0001750D00750E00750B00758200C00712CD
:1002DB0003C5750C12750D00750E00750B0075823C
:1002EB00011203C5900019120BEFD0070FBF1000BE
:1002FB00500302027F22AD82AE83AFF0758200C045
:10030B0007C006C005120388758201120388D00549
:10031B00D006D007750B038D0C8E0D8F0E758200DA
:09032B001203C590012C020BEF36
:10003B007800E84400600A790175A000E4F309D860
:10004B00FC7822E84400600C7901900001E4F0A3F5
:04005B00D8FCD9FAFA
:10033400AF82C292C290C2918F80900001120BEFE3
:10034400D292900005120BEFC29222AF82C292D2D7
:1003540090C2918F80900001120BEFD29290000511
:10036400120BEFC2922275823812033475820C127A
:1003740003347582061203347582011203347582C4
:1003840080020334E5825401030354C0FF74804F98
:10039400F5821203347F00758220C00712034FD008
:1003A400070FBF100040F022E5825401030354C03C
:1003B400FFE5092F4480F582120334850A82020383
:1003C4004FE5825401030354C0FFE50B2F4480F52D
:1003D40082120334AF0BAC0CAD0DAE0E8C828D8348
:1003E4008EF01210A4FB60228B82C007C006C005E9
:1003F400C00412034FD004D005D006D0070FBF109D
:100404000050070CBC00D50D80D222D297D296C2E0
:1004140097C29622C297D296D29722AF827E00EFDD
:1004240023540124FF92978F05ED2DFFD296C29697
:100434000EBE080040E9D297D2967F0030970C0F89
:10044400EF243750F7C29675820022C29675820156
:10045400227F00D2977E00D2968F05ED2DFDA297C4
:10046400E4334DFFC2960EBE080040EB8F82227526
:1004740082001201398532538533547555007556FF
:100484002E755700755840120C3C758201120139C3
:100494008534538535547555007556307557007538
:1004A4005840120C3CAD36AE377F00753A2A8F3B6C
:1004B400753C408D828E838FF01207658538828566
:1004C4003983AF2574302FF0853082853183120B48
:1004D400AEAC82AD83AEF0FFC004C005C006C00759
:1004E400852A82852B83852CF0E52D12151AE5814A
:1004F40024FCF581E58224FFB39200E43324FF92C7
:10050400A0852E82852F83120BAEAC82AD83AEF014
:10051400FFC004C005C006C007852A82852B8385D9
:100524002CF0E52D121356AC82AD83AEF0FFE581BD
:1005340024FCF5818C828D838EF0EF120BBBAE828E
:10054400AF83C3EE9406EF64809480401175250355
:100554007526017527017528017529018047C3EEA9
:100564009404EF648094804011752502752601750A
:100574002701752801752900802BC3EE9402EF64CE
:100584008094804011752501752601752701752811
:1005940000752900800F75250075260075270075E4
:1005A4002800752900750C23750D00750E00750B58
:1005B400007582001203C5750C34750D00750E00AC
:0905C400750B007582010203C5EC
:0600B700750F007510003A
:1005CD00D29453890F438910758B00758D00C28F9E
:1005DD00D28ED2ABD2AF22C0E0C0F0C082C083C0F9
:1005ED0007C006C005C004C0D075D000E50F75F07A
:1005FD0002A42445F582740035F0F583E0FEA3E0F6
:10060D00FF4E600E8E047D008C8B8F067F008E8DCD
:10061D00B294D0D0D004D005D006D007D083D082EC
:10062D00D0F0D0E032E510248FF582E43400F5836C
:10063D00E0FFBFFF02802A8F0F0510E510248FF514
:10064D0082E43400F583E075F07DA4F58285F083B6
:10065D00120BEF0510C28E900005120BEFD28E809B
:06066D00C4C28ED29422EB
:1017420000008CF8F3F85BF9B8F915FA67FAB9FA00
:1017520004FB4BFB90FBCFFB10FC44FC79FCACFC84
:10176200DCFC09FD34FD5CFD82FDA6FDC8FDE8FD43
:1017720006FE22FE3DFE56FE6EFE85FE9AFEAEFE81
:10178200C1FED3FEE4FEF4FE03FF19041B0414049D
:101792001B041D041401120111010D0119041B0483
:1017A20014041404000414011401140116010D019F
:1017B20016010D0119041B0414041B041D04140159
:1017C200120111010D0119041B0414041404000474
:1017D2000D010D010C010D010C010D011401160189
:1017E2000D0116011D041D041B04140116010D0137
:1017F20016011B041B040D04180116011401160125
:101802000D0116010D040F02180216011402000147
:0518120014020F04FFA9
:10067300C295900040120C2AD2957E007F003095DF
:10068300260EBE00010F900001C007C006120BEF3B
:10069300D006D007C374059E74808FF063F08095F5
:1006A300F050DB7582002275820122AF827D007ECD
:1006B30000C295EF540124FF92957B067C008B01C9
:1006C3008C021BBBFF011CE94A70F3D295EFC313E5
:1006D300FF0DBD00010EC3ED9408EE940040D2223D
:1006E3007F007D087E00C295D295A295E433FCEF8E
:1006F300C313FBEC0354804BFF7B047C008B018C06
:10070300021BBBFF011CE94A70F31DBDFF011EED77
:100713004E70D38F8222120673900001120BEF7575
:1007230082CC1206AE7582440206AE1206739000A6
:1007330001120BEF7582CC1206AE7582BE0206AEB5
:1007430012071912072E1206E3AF82C0071206E33F
:10075300AE82D0078E05E4FEFCEF4EF582EC4DF53C
:10076300832285823D85833E85F03F120743AB821A
:10077300E583FC30E77B853D82853E83853FF074CE
:100783002D1214FFEB24FFF9EC34FFFAE9F4F582A0
:10079300EAF4F583120BAEA882A983AAF0FFC00086
:1007A300C001C002C00790000075F0C87440121366
:1007B3008AAA82AD83AEF0FFE58124FCF581E4C013
:1007C300E0C0E0C0E0743FC0E08A828D838EF0EF2A
:1007D30012154AAA82AD83AEF0FFE58124FCF581B0
:1007E3008A828D838EF0EF120BBBAE82AF83020839
:1007F300778B828C83120BAEAA82AB83ACF0FDC0E5
:1008030002C003C004C00590000075F0C874401214
:10081300138AAA82AB83ACF0FDE58124FCF581E465
:10082300C0E0C0E0C0E0743FC0E08A828B838CF0FC
:10083300ED12154AAA82AB83ACF0FDE58124FCF5E9
:10084300818A828B838CF0ED120BBBAE82AF8375F2
:100853001610751727C007C00612131EAC82AD838E
:10086300D006D00774302CFC853D82853E83853FBE
:10087300F01214FF7401253DF54CE4353EF54D852A
:100883003F4E7516107517278E828F83C007C006DB
:100893001210C07516E875170312131EA982D0062D
:1008A300D007743029854C82854D83854EF0121410
:1008B300FF7402253DF540E4353EF541853F427521
:1008C30016E87517038E828F83C007C0061210C007
:1008D30075166475170012131EA982D006D007740B
:1008E30030298540828541838542F01214FF7403C9
:1008F300253DF8E4353EF9AA3F888289838AF0745E
:100903002E1214FF7404253DF543E4353EF544856A
:100913003F457516647517008E828F831210C0755C
:10092300160A75170012131EAE8274302E85438289
:100933008544838545F01214FF7405253DFAE4359B
:100943003EFEAF3F8A828E838FF074DF1214FF74F2
:1009530006253DFAE4353EFEAF3F8A828E838FF053
:1009630074431214FF853D82853E83853FF0121048
:10097300A4FFBF2D028003020A36854C82854D8376
:10098300854EF01210A47E0024D0F516EE34FFF548
:100993001790000A121087AE82AF8385408285418B
:1009A300838542F01210A47A0024D0F9EA34FFFAC6
:1009B300E92EF546EA3FF54785438285448385451D
:1009C300F01210A47A0024D0F582EA34FFF58312E2
:1009D3000BAEA882A983AAF0FFC000C001C002C069
:1009E3000790CCCD75F0CC743D12138A858248856F
:1009F300834985F04AF54BE58124FCF581854682E0
:100A0300854783120BAEA882AA83AEF0FFC048C00D
:100A130049C04AC04B88828A838EF0EF12154AA9D7
:100A230082AA83AEF0FFE58124FCF581EFB2E7FFF4
:100A3300020B17853D82853E83853FF01210A47D0E
:100A43000024D0F516ED34FFF517900064121087DB
:100A5300AC82AD83854C82854D83854EF01210A404
:100A63007B0024D0F516EB34FFF51790000AC00580
:100A7300C004121087A882AB83D004D005E82CFCF5
:100A8300EB3DFD8540828541838542F01210A47BB6
:100A93000024D0F8EB34FFFBE82CF548EB3DF54997
:100AA3008543828544838545F01210A47B0024D0BE
:100AB300F582EB34FFF583120BAEA882AB83ACF067
:100AC300FDC000C003C004C00590CCCD75F0CC744C
:100AD3003D12138A85824F85835085F051F552E587
:100AE3008124FCF581854882854983120BAEA88257
:100AF300AB83ACF0FDC04FC050C051C05288828B55
:100B0300838CF0ED12154AA982AA83AEF0FFE5812A
:100B130024FCF581AB3AAC3BAD3C8B828C838DF0EE
:100B2300E91214FFA3EA1214FFA3EE1214FFA3EFBA
:100B33001214FF853D82853E83853FF01210A4FF8A
:100B4300BF300E853D82853E83853FF074201214AD
:100B5300FF854C82854D83854EF01210A4FFBF3074
:100B630049853D82853E83853FF01210A4FFBF2057
:100B7300028010853D82853E83853FF01210A4FFDD
:100B8300BF2D27853D82853E83853FF01210A4FF4C
:100B9300854C82854D83854EF01214FF853D8285F9
:100BA3003E83853FF074200214FF22AC83AB827A2C
:100BB300007900748E0210FF12148E700AE58245CC
:100BC3008345F0700122E430D112F4700BE5F0F4A8
:100BD3007006E58330E7012290800022700AE5F079
:100BE3007006E58320E70122907FFF22AE82AF8368
:100BF300EE4F60147C7B7D001CBCFF011DEC4D702F
:100C0300F71EBEFF011F80E822AE82AF83EE4F6066
:100C1300159003E8C007C006120BEFD006D0071EDD
:100C2300BEFF011F80E722AE82AF838E048F051EB5
:100C3300BEFF011FEC4D70F322AF82BF8100500352
:100C4300020D318F06C3E49EFEAB53AC54AD558BFE
:100C5300828C838DF0742D1214FF74012BF559E4EB
:100C63003CF55A8D5B8E027E007516648E178A8260
:100C73008E83C006C005C004C003C0021210C07535
:100C8300160A75170012131EA882D002D003D004CF
:100C9300D005D006743028F8855982855A83855B40
:100CA300F01214FF74022BFBE43CFC75160A751753
:100CB300008A828E83C005C004C003C0001210C026
:100CC300AA82D000D003D004D00574302AFA8B82D4
:100CD3008C838DF01214FFAC56AD57AE587B00E8F1
:100CE30024D0F516EB34FFF51790000AC006C005B3
:100CF300C004C002121087A982AB83D002D004D0F3
:100D030005D0068A007A00E824D0F8EA34FFFAE82E
:100D130029F9EA3BFBC3E499F9E49BFB8C828D83BD
:100D23008EF0E91214FFA3EB1214FF020E63AC530F
:100D3300AD54AE557B007516648B178F828B83C0C1
:100D430007C006C005C004C00312131EA982D00346
:100D5300D004D005D006D007743029F989598C8284
:100D63008D838EF0E5591214FF74012CF55CE43D7C
:100D7300F55D8E5E7516647517008F828B83C007D1
:100D8300C006C005C004C0031210C075160A75174B
:100D93000012131EA982D003D004D005D006D007B9
:100DA300743029F9855C82855D83855EF01214FFBA
:100DB30074022CFCE43DFD75160A7517008F828BB7
:100DC30083C006C005C004C0011210C0AB82D001AD
:100DD300D004D005D00674302BFB8C828D838EF02B
:100DE3001214FFAD56AE57AF58AA597C00EA24D06F
:100DF300F516EC34FFF517900064C007C006C00574
:100E0300C003C001121087AA82AC83D001D003892A
:100E1300007900E824D0F516E934FFF51790000AAD
:100E2300C004C003C002121087A882A983D002D0D5
:100E330003D004D005D006D007E82AFAE93CFC8B9E
:100E4300017B00E924D0F9EB34FFFBE92AFAEB3C00
:100E5300FC8D828E838FF0EA1214FFA3EC1214FF31
:100E6300AD53AE54AF558D828E838FF01210A4FC18
:100E7300BC300B8D828E838FF074201214FF7401AB
:100E83002DFAE43EFB8F048A828B838CF01210A42C
:100E9300F9B9303A8D828E838FF01210A4F9B920FC
:100EA30002800D8D828E838FF01210A4F9B92D1E4E
:100EB3008D828E838FF01210A4F98A828B838CF03B
:100EC3001214FF8D828E838FF074200214FF22850B
:100ED3008262E583F56320E703020F64AB5FAC60D6
:100EE300AD618B828C838DF0742D1214FF74012BF2
:100EF300F8E43CF98D0275160A7517008562828540
:100F03006383C005C004C003C002C001C000121344
:100F13001EAE82D000D001D002D003D004C3E49E21
:100F23002430888289838AF01214FF74022BFBE435
:100F33003CFC75160A751700856282856383C004BD
:100F4300C0031210C0AE82AF83D003D004D005C358
:100F5300E49E2430FE8B828C838DF01214FF0210EA
:100F630009AD5FAE60AF6175166475170085628267
:100F7300856383C007C006C00512131EAB82D0056C
:100F8300D006D00774302B8D828E838FF01214FF1E
:100F930074012DFAE43EFB8F047516647517008502
:100FA3006282856383C007C006C005C004C003C056
:100FB300021210C075160A75170012131EA882D0EC
:100FC30002D003D004D005D0067430288A828B83E4
:100FD3008CF01214FF74022DFDE43EFE75160A75A3
:100FE3001700856282856383C006C0051210C0ABFB
:100FF30082AC83D005D006D00774302BFB8D828E54
:10100300838FF01214FFAD5FAE60AF618D828E836C
:101013008FF01210A4FCBC300B8D828E838FF07482
:10102300201214FF74012DFAE43EFB8F048A828B95
:10103300838CF01210A4F9B9303A8D828E838FF02D
:101043001210A4F9B92002800D8D828E838FF012C5
:1010530010A4F9B92D1E8D828E838FF01210A4F97E
:101063008A828B838CF01214FF8D828E838FF074AF
:10107300200214FF22D294C2A7D2A01215EC1203AD
:101083006A020673E5828516F0A4C582C0F085174F
:10109300F0A4D0F025F0C5838516F0A42583F5834D
:0110A300222A
:0D0006007581631214E9E5826003020003B6
:1010A40020F71430F6148883A88220F507E6A88375
:1010B40075830022E280F7E49322E022C2D5E5831F
:1010C40030E70DD2D5E4C39582F582E49583F583A8
:1010D400E51730E70BE4C39516F516E49517F517F5
:1010E4001212D130D50BE4C39582F582E49583F5D1
:1010F4008322FCABF0AA83A982749EF582C2D1EC50
:1011040030E716D2D1E9F42401F9EAF43400FAEB19
:10111400F43400FBECF43400FC12145B021638C205
:1011240001C202C2037511207512207513207514B3
:101134000030B7FD90170A75F08012030120B40344
:101144000212B6A201200201B34016750C23750DDC
:1011540000750E00750B007582001203C5A2019282
:101164000220B70530B7FDB201300103021215B2F7
:1011740003300314750C11750D00750E40750B02C8
:101184007582001203C58012750C23750D00750E4F
:1011940000750B007582001203C520B63430B6FD0D
:1011A400052EE4B52E02052FC37480952E74808518
:1011B4002FF063F08095F05006752E80752F008512
:1011C400325F853360756100852E82852F83120E10
:1011D400D230B5030212AD30B5FD152E74FFB52E15
:1011E40002152FC3E52E9530E52F64808531F06319
:1011F400F08095F0500685302E85312F85325F853D
:101204003360756100852E82852F83120ED20212FF
:10121400ADB203300314750C11750D00750E4075D5
:101224000B0B7582001203C58012750C23750D001B
:10123400750E00750B007582001203C520B636309A
:10124400B6FD0530E4B530020531C3E52E9530E531
:101254002F64808531F063F08095F05006852E3040
:10126400852F3185345F85356075610085308285D1
:101274003183120ED220B53130B5FD153074FFB56F
:1012840030021531C3E53094C9E5316480947F5050
:10129400067530C97531FF85345F85356075610029
:1012A400853082853183120ED290012C120BEF020D
:1012B400114190171575F080120301852E0875826F
:0D12C4000012011685300875820102011626
:10170A0053657474696E672E2E2E00577269746958
:06171A006E672E2E2E006A
:1012D100E516451760467A01E51625E0F516E5178E
:1012E100334012F517E5829516E583951740030AF9
:1012F10080E6C3E51713F517E51613F516C3E58266
:101301009516F5F0E58395174005F58385F082C3C1
:10131100E51713F517E51613F516DAE122C2D5E53F
:101321008330E70DD2D5E4C39582F582E49583F548
:1013310083E51730E70DB2D5E4C39516F516E495AC
:1013410017F51712136130D50BE4C39582F582E4CA
:101351009583F58322A8811818C6B2E7C602154AFB
:101361007A10E4FBFCE58225E0F582E58333F58321
:10137100EB33FBEC33FCEB9516F5F0EC95174006DF
:10138100FCABF0438201DADD2212142DBC00030212
:101391001659EF60FA30D502B2D1E583B4FF0302EA
:1013A100166FE582B4FF0302166F2583400724827E
:1013B100400B021659248314500302166FF582EA7A
:1013C1008DF0A4A8F0EA8EF0A428F8E435F0F9EB4A
:1013D1008DF0A428E935F0F9E433CA8FF0A429F996
:1013E100EA35F0FAEBF88EF0A429F9EA35F0FAE4DF
:1013F10033FBEC8DF0A429F9EA35F0FAE43BFBE884
:101401008FF0A42AFAEB35F0FBE433CCFD8EF0A487
:101411002AFAEB35F0FBE43CFCED8FF0A42BFBEC5E
:1014210035F0FC20E70312145B021638AA82AB8365
:10143100A2F73392D1F5826002D2F7ACF0E58124B4
:10144100F9F8E6FD08E6FE0886F008E6A2F7339211
:10145100D5F5836002D2F7AFF0227804EC7011E584
:101461008224F8500AF582E4C9CACBFCD8EF22ECF9
:101471007820058220E713D5820122C3E933F9EAF6
:1014810033FAEB33FBEC33FCD8EA1582221214ED6C
:10149100C3749E9582403979001216A130D126E994
:1014A100F42401F582EAF43400F583EBF43400F519
:1014B100F0ECF43400700AE582458345F0700122B6
:1014C100E430E70F22EC20E71489828A838BF02233
:1014D10030D10AE4F582F583F5F074802274FFF5CA
:1014E10082F583F5F0747F2275820022AA82AB8394
:1014F100A2F73392D1F5826002D2F7ACF02220F745
:101501001130F6138883A88220F509F6A883758324
:10151100002280FEF280F5F022FFA8811818121532
:10152100C1D2D133E6400730E70B7582002220E7B4
:101531000675820122C2D11215A3E97003F5822238
:1015410020D101B3E433F5822212142D7900E58311
:10155100B58202800D5003121687E583C39582126E
:1015610016A1E5D0C465D020E117EA2DFAEB3EFBC8
:10157100EC3FFC500974011216A1EC4480FC0216E8
:1015810038C3EA9DFAEB9EFBEC9FFC500FC3E49934
:10159100F9E49AFAE49BFBE49CFCB2D112145B02DD
:1015A10016387901AA82E68F82B5821318E6B5F062
:1015B1000E18E6B5830918E68A82B58202790022FF
:1015C100B4800FE5F0700AE5837006E58270027F52
:1015D10000EFB6801518B6001018B6000B18B6004B
:0B15E10006080808760022080808220F
:0300BD00751500B6
:1015EC00C2A75389F043890185238A85218CC28D3A
:1015FC00D28CD2A9D2AF22C0E0C007C006C001C0B5
:10160C00D075D00085238A85218C7403551524262A
:10161C00F9E724FF92A70515749C25155003751541
:10162C0000D0D0D001D006D007D0E032B98003EA88
:10163C0013B34010EA2401FAE43BFBE43CFC5004F5
:10164C007C800582BC000EBB000BBA0008E4F5F0F0
:10165C00F583F58222A2D1E582138CF092F78B836D
:10166C008A8222E4F583F58275F080F4A2D11322EC
:10167C00E4F583F58275F0C0747F22E582C583F5AD
:10168C0082A2D133A2D592D11392D5ECCFFCEBCE62
:10169C00FBEACDFA226040F82582500274FFF582F5
:1016AC00E824F8501ECCCBCAF9E4CC24F85014CB67
:1016BC00CAF9E4CB24F8500BCAF9E4CA24F8500355
:1016CC0079002224086010F8C3EC13FCEB13FBEA3E
:0816DC0013FAE913F9D8F12219
:00000001FF
