:03000000020006F5
:10005F0075218E75220075238E7524007525007508
:10006F002600752700752800752900E4F52AF52B61
:10007F00F52CF52DF52EF52FF530F5317402240101
:10008F00F532E43400F533740B2401F534E4340015
:10009F00F53574022412F536E43400F537740F2465
:0800AF0012F538E43400F539C4
:0300C00002000338
:030003000200C335
:1000C300120E9B20B31E30B3FD90155475F08012B1
:1000D300015F75081675820012010A75081475828E
:1000E3000112010A20B21230B2FD90156175F08041
:1000F30012015F1203501203B520B70630B7FD1289
:070103000F461201F680BC5B
:10155400526573657474696E672E2E2E004465623D
:0A156400756767696E672E2E2E0072
:10158400483A787878DF4320204C3A787878DF43FB
:1015940000543A7878782E78DF43202046414E3A3A
:0215A4007800CD
:06003500E478FFF6D8FD9F
:10010A00AF82C0071201927582A01201A2D0078F96
:10011A00821201A28508821201A212019B90012C6F
:10012A00021141AF82C0071201927582A01201A288
:10013A00D0078F821201A21201927582A11201A226
:10014A001201D8AF82C00712019B90012C121141F3
:05015A00D0078F822296
:1000130079F7E94400601B7A01901584780175A093
:1000230000E493F2A308B8000205A0D9F4DAF2754C
:02003300A0FF2C
:10015F00AD82AE83AFF0758200C007C006C0051236
:10016F0009D87582011209D8D005D006D007750DB0
:10017F00038D0E8E0F8F10758200120A1590012CB1
:03018F0002114119
:10003B007800E84400600A790175A000E4F309D860
:10004B00FC7800E84400600C7900900001E4F0A318
:04005B00D8FCD9FAFA
:10019200D297D296C297C29622C297D296D297226D
:1001A200AF827E00EF23540124FF92978F05ED2D3D
:1001B200FFD296C2960EBE080040E9D297D2967F31
:1001C2000030970C0FEF243750F7C2967582002249
:1001D200C296758201227F00D2977E00D2968F0549
:1001E200ED2DFDA297E4334DFFC2960EBE080040EE
:1001F200EB8F822275820012012D85325385335492
:1002020075550075562E755700755840120A5F7560
:10021200820112012D85345385355475550075566A
:1002220030755700755840120A5FAD36AE377F0001
:10023200753A2A8F3B753C408D828E838FF0120473
:10024200FA853882853983AF2574302FF085308264
:10025200853183120943AC82AD83AEF0FFC004C086
:1002620005C006C007852A82852B83852CF0E52DE3
:1002720012138AE58124FCF581E58224FFB3920002
:10028200E43324FF92A0852E82852F83120943AC8A
:1002920082AD83AEF0FFC004C005C006C007852A48
:1002A20082852B83852CF0E52D1211C6AC82AD839D
:1002B200AEF0FFE58124FCF5818C828D838EF0EF18
:1002C200120950AE82AF83C3EE9406EF648094802D
:1002D20040117525037526017527017528017529B9
:1002E200018047C3EE9404EF648094804011752529
:1002F20002752601752701752801752900802BC317
:10030200EE9402EF648094804011752501752601F8
:10031200752701752800752900800F75250075263F
:1003220000752700752800752900750E01750F00EC
:10033200751000750D00758200120A15750E127582
:0E0342000F00751000750D00758201020A157E
:0600B700750900750A0046
:10035000D29453890F438910758B00758D00C28F1D
:10036000D28ED2ABD2AF22C0E0C0F0C082C083C078
:1003700007C006C005C004C0D075D000E50975F0FF
:1003800002A42423F582740035F0F583E0FEA3E097
:10039000FF4E600E8E047D008C8B8F067F008E8D4D
:1003A000B294D0D0D004D005D006D007D083D0826C
:1003B000D0F0D0E032E50A246DF582E43400F58314
:1003C000E0FFBFFF02802A8F09050AE50A246DF5C8
:1003D00082E43400F583E075F07DA4F58285F08336
:1003E000121141050AC28E900005121141D28E8071
:0603F000C4C28ED294226B
:1015A60000008CF8F3F85BF9B8F915FA67FAB9FA9E
:1015B60004FB4BFB90FBCFFB10FC44FC79FCACFC22
:1015C600DCFC09FD34FD5CFD82FDA6FDC8FDE8FDE1
:1015D60006FE22FE3DFE56FE6EFE85FE9AFEAEFE1F
:1015E600C1FED3FEE4FEF4FE03FF19041B0414043B
:1015F6001B041D041401120111010D0119041B0421
:1016060014041404000414011401140116010D013C
:1016160016010D0119041B0414041B041D041401F6
:10162600120111010D0119041B0414041404000411
:101636000D010D010C010D010C010D011401160126
:101646000D0116011D041D041B04140116010D01D4
:1016560016011B041B040D041801160114011601C2
:101666000D0116010D040F021802160114020001E5
:0516760014020F04FF47
:1003F600C29590004012117CD2957E007F00309508
:10040600260EBE00010F900001C007C00612114162
:10041600D006D007C374059E74808FF063F0809574
:10042600F050DB7582002275820122AF827D007E4C
:1004360000C295EF540124FF9295900006C007C0B4
:1004460006C00512117CD005D006D007D295EFC3A1
:1004560013FF0DBD00010EC3ED9408EE940040D1CC
:10046600227F007D087E00C295D295900001C007CC
:10047600C006C00512117CD005D006D007A295E4AF
:1004860033035480FCEFC3134CFF900004C007C035
:1004960006C00512117CD005D006D0071DBDFF0190
:1004A6001EED4E70C28F82221203F69000011211C9
:1004B600417582CC1204317582440204311203F66E
:1004C6009000011211417582CC1204317582BE0270
:1004D60004311204AE1204C3120467AF82C00712BD
:1004E6000467AE82D0078E05E4FEFCEF4EF582EC83
:1004F6004DF5832285823D85833E85F03F1204D8E3
:10050600AB82E583FC30E77B853D82853E83853F74
:10051600F0742D12136FEB24FFF9EC34FFFAE9F4B3
:10052600F582EAF4F583120943A882A983AAF0FFAB
:10053600C000C001C002C00790000075F0C874403A
:100546001211FAAA82AD83AEF0FFE58124FCF58193
:10055600E4C0E0C0E0C0E0743FC0E08A828D838ED4
:10056600F0EF1213BAAA82AD83AEF0FFE58124FC48
:10057600F5818A828D838EF0EF120950AE82AF83A9
:1005860002060C8B828C83120943AA82AB83ACF0E1
:10059600FDC002C003C004C00590000075F0C87419
:1005A600401211FAAA82AB83ACF0FDE58124FCF57A
:1005B60081E4C0E0C0E0C0E0743FC0E08A828B8383
:1005C6008CF0ED1213BAAA82AB83ACF0FDE5812460
:1005D600FCF5818A828B838CF0ED120950AE82AFD6
:1005E60083751610751727C007C00612118EAC82C8
:1005F600AD83D006D00774302CFC853D82853E83C2
:10060600853FF012136F7401253DF54CE4353EF538
:100616004D853F4E7516107517278E828F83C0073E
:10062600C006120EE37516E875170312118EA9821D
:10063600D006D007743029854C82854D83854EF0CF
:1006460012136F7402253DF540E4353EF541853FB2
:10065600427516E87517038E828F83C007C006128F
:100666000EE375166475170012118EA982D006D096
:10067600077430298540828541838542F012136FC5
:100686007403253DF8E4353EF9AA3F888289838ABA
:10069600F0742E12136F7404253DF543E4353EF5D0
:1006A60044853F457516647517008E828F83120E3A
:1006B600E375160A75170012118EAE8274302E85F8
:1006C60043828544838545F012136F7405253DFAF0
:1006D600E4353EFEAF3F8A828E838FF074DF1213BD
:1006E6006F7406253DFAE4353EFEAF3F8A828E835F
:1006F6008FF0744312136F853D82853E83853FF0EC
:10070600120EC7FFBF2D0280030207CB854C8285E0
:100716004D83854EF0120EC77E0024D0F516EE34BA
:10072600FFF51790000A120EAAAE82AF83854082AB
:100736008541838542F0120EC77A0024D0F9EA3447
:10074600FFFAE92EF546EA3FF5478543828544835D
:100756008545F0120EC77A0024D0F582EA34FFF5FB
:1007660083120943A882A983AAF0FFC000C001C072
:1007760002C00790CCCD75F0CC743D1211FA85827B
:100786004885834985F04AF54BE58124FCF581854A
:100796004682854783120943A882AA83AEF0FFC02A
:1007A60048C049C04AC04B88828A838EF0EF121334
:1007B600BAA982AA83AEF0FFE58124FCF581EFB2E7
:1007C600E7FF0208AC853D82853E83853FF0120E29
:1007D600C77D0024D0F516ED34FFF517900064129E
:1007E6000EAAAC82AD83854C82854D83854EF01270
:1007F6000EC77B0024D0F516EB34FFF51790000AE0
:10080600C005C004120EAAA882AB83D004D005E8A6
:100816002CFCEB3DFD8540828541838542F0120E1E
:10082600C77B0024D0F8EB34FFFBE82CF548EB3D02
:10083600F5498543828544838545F0120EC77B00C2
:1008460024D0F582EB34FFF583120943A882AB83EB
:10085600ACF0FDC000C003C004C00590CCCD75F05F
:10086600CC743D1211FA85824F85835085F051F57F
:1008760052E58124FCF58185488285498312094326
:10088600A882AB83ACF0FDC04FC050C051C05288A7
:10089600828B838CF0ED1213BAA982AA83AEF0FF85
:1008A600E58124FCF581AB3AAC3BAD3C8B828C8375
:1008B6008DF0E912136FA3EA12136FA3EE12136FF2
:1008C600A3EF12136F853D82853E83853FF0120E9E
:1008D600C7FFBF300E853D82853E83853FF074207D
:1008E60012136F854C82854D83854EF0120EC7FF1D
:1008F600BF3049853D82853E83853FF0120EC7FF96
:10090600BF20028010853D82853E83853FF0120E12
:10091600C7FFBF2D27853D82853E83853FF0120E9A
:10092600C7FF854C82854D83854EF012136F853D3A
:1009360082853E83853FF0742002136F22AC83AB21
:10094600827A007900748E020F221212FE700AE576
:1009560082458345F0700122E430D112F4700BE534
:10096600F0F47006E58330E7012290800022700AD9
:10097600E5F07006E58320E70122907FFF22AF8233
:10098600C292C290C2918F80900001121141D29200
:10099600900005121141C29222AF82C292D290C239
:1009A600918F80900001121141D292900005121190
:1009B60041C2922275823812098475820C1209840A
:1009C6007582061209847582011209847582800275
:1009D6000984E5825401030354C0FF74804FF582F5
:1009E6001209847F00758220C00712099FD0070F65
:1009F600BF100040F022E5825401030354C0FFE516
:100A06000B2F4480F582120984850C8202099FE52A
:100A1600825401030354C0FFE50D2F4480F5821272
:100A26000984AF0DAC0EAD0FAE108C828D838EF0A7
:100A3600120EC7FB60228B82C007C006C005C00429
:100A460012099FD004D005D006D0070FBF10005062
:100A5600070CBC00D50D80D222AF82BF81005003A7
:100A6600020B548F06C3E49EFEAB53AC54AD558BBC
:100A7600828C838DF0742D12136F74012BF559E45B
:100A86003CF55A8D5B8E027E007516648E178A823F
:100A96008E83C006C005C004C003C002120EE375F3
:100AA600160A75170012118EA882D002D003D00440
:100AB600D005D006743028F8855982855A83855B1F
:100AC600F012136F74022BFBE43CFC75160A7517C3
:100AD600008A828E83C005C004C003C000120EE3E4
:100AE600AA82D000D003D004D00574302AFA8B82B3
:100AF6008C838DF012136FAC56AD57AE587B00E861
:100B060024D0F516EB34FFF51790000AC006C00591
:100B1600C004C002120EAAA982AB83D002D004D0B0
:100B260005D0068A007A00E824D0F8EA34FFFAE80D
:100B360029F9EA3BFBC3E499F9E49BFB8C828D839C
:100B46008EF0E912136FA3EB12136F020C86AC53EF
:100B5600AD54AE557B007516648B178F828B83C0A0
:100B660007C006C005C004C00312118EA982D003B7
:100B7600D004D005D006D007743029F989598C8263
:100B86008D838EF0E55912136F74012CF55CE43DEC
:100B9600F55D8E5E7516647517008F828B83C007B0
:100BA600C006C005C004C003120EE375160A751709
:100BB6000012118EA982D003D004D005D006D0072A
:100BC600743029F9855C82855D83855EF012136F2A
:100BD60074022CFCE43DFD75160A7517008F828B96
:100BE60083C006C005C004C001120EE3AB82D0016B
:100BF600D004D005D00674302BFB8C828D838EF00A
:100C060012136FAD56AE57AF58AA597C00EA24D0DE
:100C1600F516EC34FFF517900064C007C006C00552
:100C2600C003C001120EAAAA82AC83D001D00389E8
:100C3600007900E824D0F516E934FFF51790000A8C
:100C4600C004C003C002120EAAA882A983D002D093
:100C560003D004D005D006D007E82AFAE93CFC8B7D
:100C6600017B00E924D0F9EB34FFFBE92AFAEB3CDF
:100C7600FC8D828E838FF0EA12136FA3EC12136F32
:100C8600AD53AE54AF558D828E838FF0120EC7FCD6
:100C9600BC300B8D828E838FF0742012136F74011B
:100CA6002DFAE43EFB8F048A828B838CF0120EC7EA
:100CB600F9B9303A8D828E838FF0120EC7F9B920BA
:100CC60002800D8D828E838FF0120EC7F9B92D1E0C
:100CD6008D828E838FF0120EC7F98A828B838CF0F9
:100CE60012136F8D828E838FF0742002136F22850C
:100CF6008262E583F56320E703020D87AB5FAC6094
:100D0600AD618B828C838DF0742D12136F74012B61
:100D1600F8E43CF98D0275160A751700856282851E
:100D26006383C005C004C003C002C001C000121125
:100D36008EAE82D000D001D002D003D004C3E49E90
:100D46002430888289838AF012136F74022BFBE4A5
:100D56003CFC75160A751700856282856383C0049C
:100D6600C003120EE3AE82AF83D003D004D005C316
:100D7600E49E2430FE8B828C838DF012136F020E5C
:100D86002CAD5FAE60AF6175166475170085628223
:100D9600856383C007C006C00512118EAB82D005DD
:100DA600D006D00774302B8D828E838FF012136F8E
:100DB60074012DFAE43EFB8F0475166475170085E1
:100DC6006282856383C007C006C005C004C003C035
:100DD60002120EE375160A75170012118EA882D03C
:100DE60002D003D004D005D0067430288A828B83C3
:100DF6008CF012136F74022DFDE43EFE75160A7513
:100E06001700856282856383C006C005120EE3ABB8
:100E160082AC83D005D006D00774302BFB8D828E32
:100E2600838FF012136FAD5FAE60AF618D828E83DC
:100E36008FF0120EC7FCBC300B8D828E838FF07440
:100E46002012136F74012DFAE43EFB8F048A828B05
:100E5600838CF0120EC7F9B9303A8D828E838FF0EB
:100E6600120EC7F9B92002800D8D828E838FF01283
:100E76000EC7F9B92D1E8D828E838FF0120EC7F91B
:100E86008A828B838CF012136F8D828E838FF0741F
:100E96002002136F22D294C2A7D2A012145C1209A8
:100EA600BA0203F6E5828516F0A4C582C0F085175E
:100EB600F0A4D0F025F0C5838516F0A42583F5832C
:010EC6002209
:0D000600758163121359E582600302000347
:100EC70020F71430F6148883A88220F507E6A88354
:100ED70075830022E280F7E49322E022C2D5E583FE
:100EE70030E70DD2D5E4C39582F582E49583F58387
:100EF700E51730E70BE4C39516F516E49517F517D4
:100F07001210F430D50BE4C39582F582E49583F58E
:100F17008322FCABF0AA83A982749EF582C2D1EC2E
:100F270030E716D2D1E9F42401F9EAF43400FAEBF8
:100F3700F43400FBECF43400FC1212CB0214A8C208
:100F470001C202C203751120751220751320751492
:100F57000030B7FD90156E75F08012015F20B40365
:100F67000210D9A201200201B34016750E01750FB8
:100F770000751000750D00758200120A15A2019206
:100F87000220B70530B7FDB201300103021038B2B5
:100F970003300314750E11750F00751040750D029F
:100FA700758200120A158012750E01750F007510F3
:100FB70000750D00758200120A1520B63430B6FD93
:100FC700052EE4B52E02052FC37480952E748085F7
:100FD7002FF063F08095F05006752E80752F0085F1
:100FE700325F853360756100852E82852F83120CF1
:100FF700F530B5030210D030B5FD152E74FFB52EB0
:1010070002152FC3E52E9530E52F64808531F063F7
:10101700F08095F0500685302E85312F85325F851B
:101027003360756100852E82852F83120CF50210BF
:10103700D0B203300314750E11750F00751040758B
:101047000D0B758200120A158012750E01750F00BF
:10105700751000750D00758200120A1520B636301E
:10106700B6FD0530E4B530020531C3E52E9530E510
:101077002F64808531F063F08095F05006852E301F
:10108700852F3185345F85356075610085308285B0
:101097003183120CF520B53130B5FD153074FFB52D
:1010A70030021531C3E53094C9E5316480947F502F
:1010B700067530C97531FF85345F85356075610008
:1010C700853082853183120CF590012C1211410273
:1010D7000F6490157975F08012015F852E0875826F
:0D10E7000012010A85300875820102010A1D
:10156E0053657474696E672E2E2E005772697469F6
:06157E006E672E2E2E0008
:1010F400E516451760467A01E51625E0F516E5176D
:10110400334012F517E5829516E583951740030AD7
:1011140080E6C3E51713F517E51613F516C3E58244
:101124009516F5F0E58395174005F58385F082C3A0
:10113400E51713F517E51613F516DAE122AE82AFBB
:1011440083EE4F60147C7B7D001CBCFF011DEC4DC5
:1011540070F71EBEFF011F80E822AE82AF83EE4F00
:1011640060159003E8C007C006121141D006D007ED
:101174001EBEFF011F80E722AE82AF838E048F055F
:101184001EBEFF011FEC4D70F322C2D5E58330E78C
:101194000DD2D5E4C39582F582E49583F583E517F2
:1011A40030E70DB2D5E4C39516F516E49517F51797
:1011B4001211D130D50BE4C39582F582E49583F501
:1011C4008322A8811818C6B2E7C60213BA7A10E4BB
:1011D400FBFCE58225E0F582E58333F583EB33FB05
:1011E400EC33FCEB9516F5F0EC95174006FCABF0F0
:1011F400438201DADD2212129DBC00030214C9EFFE
:1012040060FA30D502B2D1E583B4FF030214DFE5FE
:1012140082B4FF030214DF258340072482400B02BB
:1012240014C924831450030214DFF582EA8DF0A458
:10123400A8F0EA8EF0A428F8E435F0F9EB8DF0A4D8
:1012440028E935F0F9E433CA8FF0A429F9EA35F036
:10125400FAEBF88EF0A429F9EA35F0FAE433FBEC62
:101264008DF0A429F9EA35F0FAE43BFBE88FF0A409
:101274002AFAEB35F0FBE433CCFD8EF0A42AFAEB2A
:1012840035F0FBE43CFCED8FF0A42BFBEC35F0FCDB
:1012940020E7031212CB0214A8AA82AB83A2F7336D
:1012A40092D1F5826002D2F7ACF0E58124F9F8E638
:1012B400FD08E6FE0886F008E6A2F73392D5F5832A
:1012C4006002D2F7AFF0227804EC7011E58224F8C2
:1012D400500AF582E4C9CACBFCD8EF22EC78200589
:1012E4008220E713D5820122C3E933F9EA33FAEB0A
:1012F40033FBEC33FCD8EA15822212135DC3749ECF
:1013040095824039790012151130D126E9F424016F
:10131400F582EAF43400F583EBF43400F5F0ECF4F0
:101324003400700AE582458345F0700122E430E719
:101334000F22EC20E71489828A838BF02230D10AB1
:10134400E4F582F583F5F074802274FFF582F58369
:10135400F5F0747F2275820022AA82AB83A2F73350
:1013640092D1F5826002D2F7ACF02220F71130F668
:10137400138883A88220F509F6A883758300228048
:10138400FEF280F5F022FFA8811818121431D2D190
:1013940033E6400730E70B7582002220E7067582AA
:1013A4000122C2D1121413E97003F5822220D10163
:1013B400B3E433F5822212129D7900E583B58202EB
:1013C400800D50031214F7E583C39582121511E5BD
:1013D400D0C465D020E117EA2DFAEB3EFBEC3FFCCC
:1013E40050097401121511EC4480FC0214A8C3EADC
:1013F4009DFAEB9EFBEC9FFC500FC3E499F9E49A31
:10140400FAE49BFBE49CFCB2D11212CB0214A8793F
:1014140001AA82E68F82B5821318E6B5F00E18E6AB
:10142400B5830918E68A82B58202790022B4800F56
:10143400E5F0700AE5837006E58270027F00EFB67E
:10144400801518B6001018B6000B18B60006080868
:081454000876002208080822B6
:0300BD00751500B6
:10145C00C2A75389F043890185238A85218CC28DCB
:10146C00D28CD2A9D2AF22C0E0C007C006C001C046
:10147C00D075D00085238A85218C740355152426BC
:10148C00F9E724FF92A70515749C251550037515D3
:10149C0000D0D0D001D006D007D0E032B98003EA1A
:1014AC0013B34010EA2401FAE43BFBE43CFC500487
:1014BC007C800582BC000EBB000BBA0008E4F5F082
:1014CC00F583F58222A2D1E582138CF092F78B83FF
:1014DC008A8222E4F583F58275F080F4A2D113227E
:1014EC00E4F583F58275F0C0747F22E582C583F53F
:1014FC0082A2D133A2D592D11392D5ECCFFCEBCEF4
:10150C00FBEACDFA226040F82582500274FFF58286
:10151C00E824F8501ECCCBCAF9E4CC24F85014CBF8
:10152C00CAF9E4CB24F8500BCAF9E4CA24F85003E6
:10153C0079002224086010F8C3EC13FCEB13FBEACF
:08154C0013FAE913F9D8F122AA
:00000001FF
