:061229008B258A268927AF
:10122F00E4FFFE1212CD7F011212CD7D03AB25AA72
:0F123F0026A927E4FF1210D27F2C7E0102129005
:100C4500E4F521F522FF1211DA75270075280075E4
:100C550029089000E6E0FBA3E0FAA3E0F9120B0AED
:100C65007F011211DA752700752800752913900187
:100C750000E0FBA3E0FAA3E0F9120B0A7526007564
:100C8500270075280A9000FAE0FBA3E0FAA3E0F933
:100C95001205C0E50E2430FF9000FDE0FBA3E0FA4D
:100CA500A3E0F9EF120484AC13AD14EC12028EAB81
:100CB5000DAA0CA90BA80A12021C50028001C3B38D
:100CC50092A0AC08AD09EC12028EA804A905AA06EB
:100CD500AB07AF0DAE0CAD0BAC0A1200211202C76B
:100CE5008E218F22C3E5229406E5216480948040FD
:100CF50011750E0375150175160175170175180126
:100D05008042C3E5229404E52164809480401175F6
:100D15000E02751501751601751701E4F518802485
:100D2500C3E5229402E52164809480400C750E0190
:100D3500751501751601E48007E4F50EF515F51630
:100D4500F517F5187B017A0079E9E4FDFF1210D259
:0D0D55007B017A0079D5E4FD7F010210D208
:1013210053657474696E672E2E2E00577269746945
:0A1331006E672E2E2E0020202000F3
:10084700C200C201C20278217C007D007BFF7A13BF
:1008570079377E007F0412041830B7FD7BFF7A13C7
:10086700792112122920B4030209ADA20030010137
:10087700B350107B017A0079E9E4FDFF1210D2A290
:1008870000920120B70530B7FDB20030000302091E
:100897001FB20230020B7B007A0079217D02E480CF
:1008A700087B017A0079E9E4FDFF1210D220B62E09
:1008B70030B6FD0509E50970020508D39480E508FF
:1008C7006480948040067508007509809000E6E012
:1008D700FBA3E0FAA3E0F9AF09AE08120E5730B553
:1008E700030209A330B5FDE509150970021508C310
:1008F700E5099514E5136480F8E5086480985006C7
:100907008513088514099000E6E0FBA3E0FAA3E04D
:10091700F9AF09AE080209A0B20230020B7B007AD8
:100927000079217D0BE480087B017A0079E9E4FDF9
:10093700FF1210D220B63230B6FD0514E51470024E
:100947000513D39509E5086480F8E513648098409A
:1009570006850813850914900100E0FBA3E0FAA3BC
:10096700E0F9AF14AE13120E5720B53030B5FDE5E0
:1009770014151470021513C3E51494C9E5136480A4
:10098700947F50067513FF7514C9900100E0FBA30F
:10099700E0FAA3E0F9AF14AE13120E577F2C7E01D5
:1009A70012129002086C7BFF7A13792C121229AD70
:0D09B70009E4FF121270AD147F01021270EE
:10124E0057656C636F6D6520746F20414155435334
:10125E000020202020204E6F2E20333120202020F1
:02126E0020005E
:100D6200E4F521F522F52375243278037C017D0117
:100D72007BFF7A12794EFE7F1112041878147C01DF
:100D82007D017BFF7A12795F7E007F11120418E4E5
:100D9200F52174032521F582E43401F583E0FBADEE
:100DA20021E4FF1213D8E521C394075017E521244B
:100DB20005FD74192521F582E43401F583E0FB7FFA
:100DC200011213D8AF24AE231212900521E521C3DC
:100DD200941040BE7F017E001212EAE4F521E4F590
:100DE2002274042522F582E43401F583E0FF7403C2
:100DF2002522F582E43401F583EFF074152522F5FE
:100E020082E43401F583E0FF74142522F582E43490
:100E120001F583EFF00522E522B410C590011274AA
:100E220020F0900123F07B017A017903E4FDFF12A7
:100E320010D27B017A017914E4FD7F011210D2E510
:100E420023C313FEE52413FF1212900521E521C3EB
:040E52009410408A2E
:010E56002279
:101270008F258D261213FA7FA012117AAF25121135
:101280007AAF2612117A1200037F2C7E010212908F
:0211DA008F2361
:1011DC001213FA7FA012117AAF2312117A1213FA9A
:1011EC007FA112117A1213548F241200037F2C7ECC
:0611FC0001121290AF2465
:0112020022C9
:1009C400604A008B0000F88CF8F3F95BF9B8FA156B
:1009D400FA67FAB9FB04FB4BFB90FBCFFC10FC4419
:1009E400FC79FCACFCDCFD09FD34FD5CFD82FDA65C
:1009F400FDC8FDE8FE06FE22FE3DFE56FE6EFE85A7
:100A0400FE9AFEAEFEC1FED3FEE4FEF4FF03608B4D
:100A1400000019041B0414041B041D041401120116
:100A240011010D0119041B0414041404000414011D
:100A34001401140116010D0116010D0119041B0402
:100A440014041B041D041401120111010D011904E5
:100A54001B041404140400040D010D010C010D0108
:100A64000C010D01140116010D0116011D041D04D4
:100A74001B04140116010D0116011B041B040D04B3
:100A840018011601140116010D0116010D040F02BF
:100A9400180216011402000114020F04FF011A00C7
:030AA40001190035
:10139A00D29453890F438910E4F58BF58DC28FD20D
:0613AA008ED2ABD2AF228F
:03001B0002105080
:10105000C0E0C083C082C0D075D000C006E51A25AC
:10106000E0248BF582E43400F583E0FEA3E04E60DB
:1010700018E51A25E0248BF582E43400F583E0FEC0
:10108000A3E0F58BEEF58DB294D006D0D0D082D00F
:0410900083D0E032F7
:1010940074002519F582E43400F583E0FFF4602937
:1010A4008F1A051974002519F582E43400F583E0DC
:1010B40075F07DA4FFAEF01212900519C28E7F0563
:0E10C4007E00121290D28E80C7C28ED294226D
:10129000D3EF9400EE94004015E4FDFC0DBD000179
:0E12A0000CED647B4C70F5EF1F70E51E80E2D4
:0112AE00221D
:1012EA00AB07AA06D3EB9400EA9400400E7FE87E8F
:0C12FA0003121290EB1B70EC1A80E9222A
:0B000E00EF1FAC0670011E4C70F622C4
:10114600E4F530F531C2957F40FE12000ED295309F
:10115600951F0531E531700205307F017E001212C0
:1011660090D3E5319405E5306480948040E17F00BA
:03117600227F01D4
:011179002253
:10111000E4FBFAC2950531E53170020530EF139218
:1011200095753000753106E5311531AC307002151A
:10113000304C70F3D295EFC313FF0BBB00010AEBE9
:0511400064084A70CEB6
:011145002287
:10100B00E4F9F5307D08FCC2950FBF0000D2950FB7
:10101B00BF00000FBF0000A295E433F530C433339B
:10102B00335480FBE9C3134BF97E007F04EF1FAAF7
:10103B000670011E4A70F6ED1D70011CED4C70C759
:04104B00AD01AF053F
:01104F00227E
:1013B0001211467F017E001212907FCC1211107F15
:0413C00044021110C2
:1013C4001211467F017E001212907FCC1211107F01
:0413D400BE02111034
:10136C00E4FFFE1213B01213C412100B8F2F1210C5
:06137C000BEFFEE52FFF60
:011382002248
:0605C0008B238A2489252B
:1005C600E4F529F52AF52EF52DF52CF52B12136CED
:1005D6008E298F2AC3E52964809480504DAB23AAC7
:1005E60024A925742D120484E52A152A70021529DA
:1005F600632AFF6329FFAC29AD2AEC12028E8F2EE7
:100606008E2D8D2C8C2BE4FFFE7DC87C40AB2EAA54
:100616002DA92CA82B120116E4FBFAF9783F12003B
:10062600251202C78E298F2A8045AC29AD2AEC12E5
:10063600028E8F2E8E2D8D2C8C2BE4FFFE7DC87C9A
:1006460040AB2EAA2DA92CA82B120116E4FBFAF911
:10065600783F1200251202C78E298F2A7C277D102B
:100666001204CAEF2430AB23AA24A925120484AEAF
:1006760029AF2A7C277D101204CA7E037FE8CFCDDE
:10068600CFCECCCE1204CAEF2430AB23AA24A925A0
:10069600900001120496AE29AF2A7C037DE812046D
:1006A600CA7E007F64CFCDCFCECCCE1204CAEF2453
:1006B60030AB23AA24A925900002120496900003C9
:1006C600742E120496AE29AF2A7C007D641204CAE9
:1006D6007E007F0ACFCDCFCECCCE1204CAEF243017
:1006E600AB23AA24A9259000041204969000057451
:1006F600DF120496900006744312049612043E64B8
:100706002DAB23AA24A925900001706A1204572450
:10071600D0FFE434FFFE7C007D0A1204B89000028C
:1007260012045724D0FDEC34FFFCEF2DFDEE3CFC0B
:1007360012028EC004C005C006C007AB23AA24A9B6
:100746002590000412045724D0FFE434FFFEAD07C1
:10075600FC12028E7BCD7ACC79CC783D120116D074
:1007660003D002D001D000120025E4FBFA7980788C
:10077600BF120116807912045724D0FFE434FFFE1D
:100786007C007D0A1204B8C006C00712043E24D0BD
:10079600FFE434FFFE7D641204B8D0E02FFFD0E002
:1007A6003EFE90000212045724D0FDEC34FFFCEF0D
:1007B6002DFDEE3CFC12028EC004C005C006C0072B
:1007C600AB23AA24A92590000412045724D0FFE4E1
:1007D60034FFFEAD07FC12028E7BCD7ACC79CC7845
:1007E6003D120116D003D002D001D0001200258F91
:1007F6002E8E2D8D2C8C2BAF2EAE2DAD2CAC2BAB87
:1008060026AA27A92812052DAB23AA24A925120456
:100816003EB430057420120484AB23AA24A9259083
:100826000001120457B4301812043EFF642060041D
:10083600EFB42D0C900001EF12049674201204847C
:01084600228F
:030AA700011B0030
:10138300C2A75389F043890185128A85108CC28DC7
:07139300D28CD2A9D2AF22D7
:03000B000211AC33
:0911AC00C0E0C0D075D000C00005
:1011B50085128A85108CE51B54032415F8E624FF57
:0E11C50092A7051BE51BC394644003751B0035
:0711D300D000D0D0D0E032C3
:100B0A008F238B248A258926E523C39481406CE4AC
:100B1A009523F523742D120484E52375F06484E586
:100B2A00F075F00A842430AB24AA25A92690000186
:100B3A00120496E52375F00A84E5F0243090000249
:100B4A0012049690000112045724D0FFE434FFFEE9
:100B5A007C007D0A1204B890000212045724D0FDCA
:100B6A00EC34FFFCEF2DFFEE3CFE7CFF7DFF120410
:100B7A00B8AB27AA28A929EE020C07E52375F06469
:100B8A00842430AB24AA25A926120484E52375F00F
:100B9A006484E5F075F00A842430AB24AA25A926DA
:100BAA00900001120496E52375F00A84E5F02430DA
:100BBA0090000212049690000112045724D0FFE418
:100BCA0034FFFE7C007D0A1204B8C006C007120476
:100BDA003E24D0FFE434FFFE7D641204B8D0E02F37
:100BEA00FFD0E03EFE90000212045724D0FDEC3400
:100BFA00FFFCEF2DFFEE3CAB27AA28A9298FF012A4
:100C0A000500AB24AA25A92612043EB43005742097
:100C1A00120484AB24AA25A926900001120457B411
:100C2A00301812043EFF64206004EFB42D0C9000CB
:0B0C3A0001EF120496742012048422C3
:100E57008E258F268B278A288929C3E525648094C8
:100E6700805035742D120484AE25AF267C007D0A90
:100E77001204CAEF75F0FFA42430AB27AA28A929CA
:100E8700900001120496AE25AF267C007D0A12045D
:100E9700CAED75F0FFA4804AAE25AF267C007D64BD
:100EA7001204CAEF2430AB27AA28A929120484AE5A
:100EB70025AF267C007D641204CA7E007F0ACFCD51
:100EC700CFCECCCE1204CAEF2430AB27AA28A9294B
:100ED700900001120496AE25AF267C007D0A12040D
:100EE700CAED2430AB27AA28A9299000021204963C
:100EF700AB27AA28A92912043EB43005742012048E
:100F070084AB27AA28A929900001120457B43018E6
:100F170012043EFF64206004EFB42D0C900001EF33
:090F2700120496742012048422C5
:0F13EB00D294C2A7D2A012138312133B02114651
:0913FA00D297D296C297C2962246
:07000300C297D296D29722AA
:10117A00E4FEFDEFC4131313540124FF9297EF25E5
:10118A00E0FFD296C2960EBE08E9D297D296309761
:10119A000C0DEDD394C840F6C2967F0022C2967F0A
:0111AA000143
:0111AB002221
:10135400E4FFD297FED296EF25E0FFA297E4334252
:0713640007C2960EBE08EE61
:01136B00225F
:0312AF004480FF79
:1012B200C292C290C2918F807F017E00121290D2A0
:0B12C200927F057E00121290C2922263
:10130600C292D290C2918F807F017E00121290D23B
:0B131600927F057E00121290C292220E
:10133B007F381212B27F0C1212B27F061212B27FDA
:09134B00011212B27F800212B2FD
:1012CD00EF5401C4333354C01212AFE4F5287F201C
:0C12DD001213060528E528C3941040F207
:0112E90022E2
:1013D8008B25EF5401C4333354C02D1212AFAF25FF
:0313E800021306E7
:1010D2008D288B298A2A892BEF5401C4333354C0BB
:1010E20025284480FF1212B2AB29AA2AA92B120486
:1010F2003EFF60191213060528E528C39410500D0F
:0E1102007401252BF52BE4352AF52A80DB221B
:101203005374617274696E672E2E2E005265736576
:101213007474696E672E2E2E004465627567676964
:061223006E672E2E2E0066
:100AAA00020F008E0211008E010E000415000000D4
:100ABA0000040A00000000020800000213000051AE
:100ACA0000E9483A787878DF4320204C3A787878F9
:100ADA00DF43005100D5543A7878782E78DF4320E6
:100AEA002046414E3A78004300E60100EB430100FC
:0F0AFA000100F44300FA0100D74300FD0100E4BE
:100FBC001213EB120D627BFF7A12790312122920A5
:100FCC00B31A30B3FD7BFF7A12790F1212297D16FA
:100FDC00E4FF1212707D147F0112127020B21230D5
:100FEC00B2FD7BFF7A12791C12122912139A12107D
:0F0FFC009420B70630B7FD120847120C4580C08D
:10001E00020333E86480F8E933E83360110460F0DA
:10002E00ED33EC337009E8FCE9FDEAFEEBFF220448
:10003E0060DED3EB9FEA9EE99DE8C2E78CF0C2F743
:10004E0095F0400CE8CCF8E9CDF9EACEFAEBCFFB0F
:10005E001202FE85D0F05804700320D5B3E8047068
:10006E00075002B2D502033D92D5EC0460F7E4CC02
:10007E00C0E0C398F8603B94186008400DD0E0FBD8
:10008E00020315E4FBFAC9FC8028E830E406E4C953
:10009E00FBE4CAFCE830E305E4C9CACBFCE854072C
:1000AE006010F8C3E913F9EA13FAEB13FBEC13FC37
:1000BE00D8F130F52FC3E49CFCEF9BFFEE9AFEEDDA
:1000CE0099FDD0E0FBEF4E4D4C701222DB03020384
:1000DE003AEC2CFCEF33FFEE33FEED33FDED30E763
:1000EE00EB020315EF2BFFEE3AFEED39FDD0E0FBF0
:1000FE0050130BBB000302033DED13FDEE13FEEF99
:08010E0013FFEC13FC020315C2
:10011600EC4D6011E8497017ED33EC3304600DE4E3
:10012600FCFFFEFD22E933E8330470F802033312C4
:1001360002FE58046009E4CC2481500628500902C6
:10014600033D28400302033AC0E0EB4A7044B980FD
:1001560006D0E0FB020329EF4E701CBD8008EBFFC2
:10016600EAFEE9FD80EBE98DF0A4FEE5F00201FF71
:10017600E9CDF9EAFEEBFFEF89F0A4FCE5F0CE89C4
:10018600F0A42EFFE435F0CD89F0A42DFEE435F081
:100196008067EF4E7005BD80D780C3EF8BF0A4ACAF
:1001A600F0EE8BF0A42CFCE435F0F8EF8AF0A42CEA
:1001B600E5F038FCE433CB8DF0A42CFCE5F03BF8FD
:1001C600EE8AF0A42CFCE5F038F8E433CF89F0A4ED
:1001D6002CFCE5F038CF3400CE89F0A42FFFE5F0F3
:1001E6003EFEE433C98DF0A42EFEE5F039CD8AF04B
:1001F600A42FFFE5F03EFEE43DFD33D0E0FB5007C3
:100206000BBB000F02033DEC2CFCEF33FFEE33FE7D
:06021600ED33FD020315AB
:10021C0074F8CC6480CCC86480C8F582046043C395
:10022C00EB9FF5F0EA9E42F0E99D42F0E89C45F028
:10023C0060305018E5825FFFE582F42B5582FB504D
:10024C00210ABA001D09B90019088016E5825BFB6A
:10025C00E582F42F5582FF50090EBE00050DBD003E
:10026C00010CC3EB9FF5F0EA9E42F0E99D42F0E8E9
:0D027C009C45F06007CC4820E701B3EC2260
:1002890075F020800E75F010800575F0087D007EF0
:10029900007F003392D530D50312051FEC3340108F
:1002A900EF33FFEE33FEED33FDEC33FCD5F0ED22F9
:0E02B900E5F0247EA2D513CC92E7CDCEFF2235
:1002C700EDD2E7CD33EC3392D524814006E4FFFE2F
:1002D700FDFC22FCE4CFCECDCC24E0501174FF808E
:1002E700EDC3CC13CCCD13CDCE13CECF13CF04702B
:0702F700F030D5DE02051F07
:1002FE00E9D2E7C933E833F892D5EDD2E7CD33EC46
:07030E0033FC5002B2D522BE
:10031500EC30E7100FBF000C0EBE00080DBD000449
:100325000BEB6014A2D5EB13FCED92E7FD2274FFF5
:10033500FCFDFEFF22E480F8A2D574FF13FC7D804E
:03034500E480EF62
:03000000020F30BC
:0C0F3000787FE4F6D8FD758131020F7760
:10034800E709F608DFFA8046E709F208DFFA803E97
:1003580088828C83E709F0A3DFFA8032E309F60884
:10036800DFFA8078E309F208DFFA807088828C83EC
:10037800E309F0A3DFFA806489828A83E0A3F608A0
:10038800DFFA805889828A83E0A3F208DFFA804C7A
:1003980080D280FA80C680D4806980F28033801051
:1003A80080A680EA809A80A880DA80E280CA8033BA
:1003B80089828A83ECFAE493A3C8C582C8CCC58332
:1003C800CCF0A3C8C582C8CCC583CCDFE9DEE78002
:1003D8000D89828A83E493A3F608DFF9ECFAA9F081
:1003E800EDFB2289828A83ECFAE0A3C8C582C8CCD7
:1003F800C583CCF0A3C8C582C8CCC583CCDFEADEF0
:10040800E880DB89828A83E493A3F208DFF980CC51
:1004180088F0EF60010E4E60C388F0ED2402B4044A
:100428000050B9F582EB2402B4040050AF232345F1
:060438008223900398737B
:10043E00BB010689828A83E0225002E722BBFE02BC
:09044E00E32289828A83E49322EF
:10045700BB010CE58229F582E5833AF583E022505A
:1004670006E92582F8E622BBFE06E92582F8E222A4
:0D047700E58229F582E5833AF583E49322BE
:10048400BB010689828A83F0225002F722BBFE0157
:02049400F32251
:10049600F8BB010DE58229F582E5833AF583E8F09C
:1004A600225006E92582C8F622BBFE05E92582C848
:0204B600F22230
:1004B800EF8DF0A4A8F0CF8CF0A428CE8DF0A42E58
:0204C800FE2212
:1004CA00C2D5EC30E709B2D5E4C39DFDE49CFCEE4D
:1004DA0030E715B2D5E4C39FFFE49EFE120547C379
:1004EA00E49DFDE49CFC800312054730D507C3E474
:0604FA009FFFE49EFE22BC
:10050000BB010A89828A83F0E5F0A3F0225006F746
:0F05100009A7F01922BBFE06F3E5F009F3192243
:0E051F00C3E49FFFE49EFEE49DFDE49CFC22ED
:10052D00BB010789828A830205A85005E9F80205F7
:0A053D009CBBFE05E9F80205B4229C
:100F3C00020FBCE493A3F8E493A34003F68001F200
:100F4C0008DFF48029E493A3F85407240CC8C333B6
:100F5C00C4540F4420C8834004F456800146F6DF85
:100F6C00E4800B01020408102040809009C4E47E48
:100F7C00019360BCA3FF543F30E509541FFEE4937A
:100F8C00A360010ECF54C025E060A840B8E493A341
:100F9C00FAE493A3F8E493A3C8C582C8CAC583CA6C
:100FAC00F0A3C8C582C8CAC583CADFE9DEE780BE24
:010B090000EB
:10054700BC000BBE0029EF8DF084FFADF022E4CC98
:10055700F875F008EF2FFFEE33FEEC33FCEE9DEC61
:10056700984005FCEE9DFE0FD5F0E9E4CEFD22EDA7
:10057700F8F5F0EE8420D21CFEADF075F008EF2FF1
:10058700FFED33FD4007985006D5F0F222C398FDE2
:050597000FD5F0EA227F
:0C059C00ECF608EDF608EEF608EFF6228B
:0C05A800ECF0A3EDF0A3EEF0A3EFF022C6
:0C05B400ECF208EDF208EEF208EFF22283
:00000001FF
