:06124C008B0C8A0D890ED7
:10125200E4FFFE1212F07F011212F07D03AB0CAA22
:0F1262000DA90EE4FF12112B7F2C7E010212B397
:100C4500E4F508F509FF1211FD750E00750F007525
:100C550010219000E6E0FBA3E0FAA3E0F9120B0AED
:100C65007F011211FD750E00750F0075102C900196
:100C750000E0FBA3E0FAA3E0F9120B0A750D00757D
:100C85000E00750F239000FAE0FBA3E0FAA3E0F94C
:100C95001205C0E5272430FF9000FDE0FBA3E0FA34
:100CA500A3E0F9EF120484AC2CAD2DEC12028EAB4F
:100CB50026AA25A924A82312021C50028001C3B329
:100CC50092A0AC21AD22EC12028EA804A905AA06B9
:100CD500AB07AF26AE25AD24AC231200211202C707
:100CE5008E088F09C3E5099406E508648094804061
:100CF50011752703752E01752F01753001753101A9
:100D05008042C3E5099404E5086480948040117528
:100D15002702752E01752F01753001E4F531802408
:100D2500C3E5099402E50864809480400C752701A9
:100D3500752E01752F01E48007E4F527F52EF52FB3
:100D4500F530F5317B017A0079E9E4FDFF12112BCD
:0D0D55007B017A0079D5E4FD7F0102112BAE
:1013440053657474696E672E2E2E00577269746922
:0A1354006E672E2E2E0020202000D0
:10084700C200C201C20278087C007D007BFF7A13D8
:10085700795A7E007F0412041830B7FD7BFF7A13A4
:10086700794412124C20B4030209ADA200300101F1
:10087700B350107B017A0079E9E4FDFF12112BA236
:1008870000920120B70530B7FDB20030000302091E
:100897001FB20230020B7B007A0079087D02E480E8
:1008A700087B017A0079E9E4FDFF12112B20B62EAF
:1008B70030B6FD0522E52270020521D39480E5219B
:1008C7006480948040067521007522809000E6E0E0
:1008D700FBA3E0FAA3E0F9AF22AE21120E5730B521
:1008E700030209A330B5FDE522152270021521C3C5
:1008F700E522952DE52C6480F8E521648098500663
:10090700852C21852D229000E6E0FBA3E0FAA3E0E9
:10091700F9AF22AE210209A0B20230020B7B007AA6
:100927000079087D0BE480087B017A0079E9E4FD12
:10093700FF12112B20B63230B6FD052DE52D7002C2
:10094700052CD39522E5216480F8E52C6480984036
:100957000685212C85222D900100E0FBA3E0FAA358
:10096700E0F9AF2DAE2C120E5720B53030B5FDE5AE
:100977002D152D7002152CC3E52D94C9E52C648027
:10098700947F5006752CFF752DC9900100E0FBA3DD
:10099700E0FAA3E0F9AF2DAE2C120E577F2C7E01A3
:1009A7001212B302086C7BFF7A13794F12124CAD07
:0D09B70022E4FF121293AD2D7F0102129376
:1012710057656C636F6D6520746F20414155435311
:101281000020202020204E6F2E20333120202020CE
:0212910020003B
:100D6200E4F508F509F50A750B3278037C017D017B
:100D72007BFF7A127971FE7F1112041878147C01BC
:100D82007D017BFF7A1279827E007F11120418E4C2
:100D9200F50874032508F582E43401F583E0FBAD20
:100DA20008E4FF1213FBE508C394075017E5082473
:100DB20005FD74192508F582E43401F583E0FB7F13
:100DC200011213FBAF0BAE0A1212B30508E508C3FA
:100DD200941040BE7F017E0012130DE4F508E4F585
:100DE2000974042509F582E43401F583E0FF7403F4
:100DF2002509F582E43401F583EFF074152509F530
:100E020082E43401F583E0FF74142509F582E434A9
:100E120001F583EFF00509E509B410C590011274DC
:100E220020F0900123F07B017A017903E4FDFF12A7
:100E3200112B7B017A017914E4FD7F0112112BE55C
:100E42000AC313FEE50B13FF1212B30508E508C32C
:040E52009410408A2E
:010E56002279
:101293008F0C8D0D12141D7FA012119DAF0C121116
:1012A3009DAF0D12119D1200037F2C7E010212B31C
:0211FD008F0A57
:1011FF0012141D7FA012119DAF0A12119D12141D02
:10120F007FA112119D1213778F0B1200037F2C7E7B
:06121F00011212B3AF0B37
:0112250022A6
:1009C400604A008B0000F88CF8F3F95BF9B8FA156B
:1009D400FA67FAB9FB04FB4BFB90FBCFFC10FC4419
:1009E400FC79FCACFCDCFD09FD34FD5CFD82FDA65C
:1009F400FDC8FDE8FE06FE22FE3DFE56FE6EFE85A7
:100A0400FE9AFEAEFEC1FED3FEE4FEF4FF03608B4D
:100A1400000019041B0414041B041D041401120116
:100A240011010D0119041B0414041404000414011D
:100A34001401140116010D0116010D0119041B0402
:100A440014041B041D041401120111010D011904E5
:100A54001B041404140400040D010D010C010D0108
:100A64000C010D01140116010D0116011D041D04D4
:100A74001B04140116010D0116011B041B040D04B3
:100A840018011601140116010D0116010D040F02BF
:100A9400180216011402000114020F04FF011E00C3
:030AA400011D0031
:1013BD00D29453890F438910E4F58BF58DC28FD2EA
:0613CD008ED2ABD2AF226C
:03001B0002106A66
:10106A00C0E0C083C082C0D075D000C006E51E258E
:10107A00E0248BF582E43400F583E0FEA3E04E60C1
:10108A0018E51E25E0248BF582E43400F583E0FEA2
:10109A00A3E0F58BEEF58DB294D006D0D0D082D0F5
:0410AA0083D0E032DD
:1010ED007400251DF582E43400F583E0FFF46029DA
:1010FD008F1E051D7400251DF582E43400F583E077
:10110D0075F07DA4FFAEF01212B3051DC28E7F05E2
:0E111D007E001212B3D28E80C7C28ED29422F0
:1012B300D3EF9400EE94004015E4FDFC0DBD000156
:0E12C3000CED647B4C70F5EF1F70E51E80E2B1
:0112D10022FA
:10130D00AB07AA06D3EB9400EA9400400E7FE87E6B
:0C131D00031212B3EB1B70EC1A80E922E3
:0B000E00EF1FAC0670011E4C70F622C4
:10116900E4F517F518C2957F40FE12000ED29530AE
:10117900951F0518E518700205177F017E001212E8
:10118900B3D3E5189405E5176480948040E17F00A6
:03119900227F01B1
:01119C002230
:0210AE008F179A
:1010B000E4F518F519F51AF51BF51AF51BC2950597
:1010C00019E51970020518E5171392957F077E0040
:1010D00012000ED295E517C313F517051BE51B701B
:0C10E00002051AC39408E51A940040D1E0
:0110EC0022E1
:100FBC00E4F517F518F519F51AF51BF51CF51B7565
:100FCC001C08C295051AE51A70020519D295051A66
:100FDC00E51A70020519051AE51A70020519A29591
:100FEC00E433F518C43333335480FFE517C3134F80
:100FFC00F5177F057E0012000EE51C151C700215FE
:0E100C001BD3E51C9400E51B940050B6AF17F3
:01101A0022B3
:1013D3001211697F017E001212B37FCC1210AE7F0F
:0413E300440210AE02
:1013E7001211697F017E001212B37FCC1210AE7FFB
:0413F700BE0210AE74
:10138F00E4FFFE1213D31213E7120FBC8F16120FC6
:06139F00BCEFFEE516FFA5
:0113A5002225
:0605C0008B0A8A0B890C76
:1005C600E4F510F511F515F514F513F51212138F60
:1005D6008E108F11C3E51064809480504DAB0AAA2B
:1005E6000BA90C742D120484E51115117002151057
:1005F6006311FF6310FFAC10AD11EC12028E8F1564
:100606008E148D138C12E4FFFE7DC87C40AB15AAB8
:1006160014A913A812120116E4FBFAF9783F120086
:10062600251202C78E108F118045AC10AD11EC1249
:10063600028E8F158E148D138C12E4FFFE7DC87CFE
:1006460040AB15AA14A913A812120116E4FBFAF975
:10065600783F1200251202C78E108F117C277D105D
:100666001204CAEF2430AB0AAA0BA90C120484AEFA
:1006760010AF117C277D101204CA7E037FE8CFCD10
:10068600CFCECCCE1204CAEF2430AB0AAA0BA90CEB
:10069600900001120496AE10AF117C037DE812049F
:1006A600CA7E007F64CFCDCFCECCCE1204CAEF2453
:1006B60030AB0AAA0BA90C90000212049690000314
:1006C600742E120496AE10AF117C007D641204CA1B
:1006D6007E007F0ACFCDCFCECCCE1204CAEF243017
:1006E600AB0AAA0BA90C900004120496900005749C
:1006F600DF120496900006744312049612043E64B8
:100706002DAB0AAA0BA90C900001706A120457249B
:10071600D0FFE434FFFE7C007D0A1204B89000028C
:1007260012045724D0FDEC34FFFCEF2DFDEE3CFC0B
:1007360012028EC004C005C006C007AB0AAA0BA9E8
:100746000C90000412045724D0FFE434FFFEAD07DA
:10075600FC12028E7BCD7ACC79CC783D120116D074
:1007660003D002D001D000120025E4FBFA7980788C
:10077600BF120116807912045724D0FFE434FFFE1D
:100786007C007D0A1204B8C006C00712043E24D0BD
:10079600FFE434FFFE7D641204B8D0E02FFFD0E002
:1007A6003EFE90000212045724D0FDEC34FFFCEF0D
:1007B6002DFDEE3CFC12028EC004C005C006C0072B
:1007C600AB0AAA0BA90C90000412045724D0FFE42C
:1007D60034FFFEAD07FC12028E7BCD7ACC79CC7845
:1007E6003D120116D003D002D001D0001200258F91
:1007F600158E148D138C12AF15AE14AD13AC12AB4F
:100806000DAA0EA90F12052DAB0AAA0BA90C1204EC
:100816003EB430057420120484AB0AAA0BA90C90CE
:100826000001120457B4301812043EFF642060041D
:10083600EFB42D0C900001EF12049674201204847C
:01084600228F
:030AA700011F002C
:1013A600C2A75389F0438901852B8A85298CC28D72
:0713B600D28CD2A9D2AF22B4
:03000B000211CF10
:0911CF00C0E0C0D075D000C000E2
:1011D800852B8A85298CE51F5403242EF8E624FFE5
:0E11E80092A7051FE51FC394644003751F0006
:0711F600D000D0D0D0E032A0
:100B0A008F0A8B0B8A0C890DE50AC39481406CE429
:100B1A00950AF50A742D120484E50A75F06484E5D1
:100B2A00F075F00A842430AB0BAA0CA90D900001D1
:100B3A00120496E50A75F00A84E5F0243090000262
:100B4A0012049690000112045724D0FFE434FFFEE9
:100B5A007C007D0A1204B890000212045724D0FDCA
:100B6A00EC34FFFCEF2DFFEE3CFE7CFF7DFF120410
:100B7A00B8AB0EAA0FA910EE020C07E50A75F064CD
:100B8A00842430AB0BAA0CA90D120484E50A75F073
:100B9A006484E5F075F00A842430AB0BAA0CA90D25
:100BAA00900001120496E50A75F00A84E5F02430F3
:100BBA0090000212049690000112045724D0FFE418
:100BCA0034FFFE7C007D0A1204B8C006C007120476
:100BDA003E24D0FFE434FFFE7D641204B8D0E02F37
:100BEA00FFD0E03EFE90000212045724D0FDEC3400
:100BFA00FFFCEF2DFFEE3CAB0EAA0FA9108FF012EF
:100C0A000500AB0BAA0CA90D12043EB430057420E2
:100C1A00120484AB0BAA0CA90D900001120457B45C
:100C2A00301812043EFF64206004EFB42D0C9000CB
:0B0C3A0001EF120496742012048422C3
:100E57008E0C8F0D8B0E8A0F8910C3E50C6480945E
:100E6700805035742D120484AE0CAF0D7C007D0AC2
:100E77001204CAEF75F0FFA42430AB0EAA0FA91015
:100E8700900001120496AE0CAF0D7C007D0A12048F
:100E9700CAED75F0FFA4804AAE0CAF0D7C007D64EF
:100EA7001204CAEF2430AB0EAA0FA910120484AEA5
:100EB7000CAF0D7C007D641204CA7E007F0ACFCD83
:100EC700CFCECCCE1204CAEF2430AB0EAA0FA91096
:100ED700900001120496AE0CAF0D7C007D0A12043F
:100EE700CAED2430AB0EAA0FA91090000212049687
:100EF700AB0EAA0FA91012043EB4300574201204D9
:100F070084AB0EAA0FA910900001120457B4301831
:100F170012043EFF64206004EFB42D0C900001EF33
:090F2700120496742012048422C5
:0F140E00D294C2A7D2A01213A612135E021169C4
:09141D00D297D296C297C2962222
:07000300C297D296D29722AA
:10119D00E4FEFDEFC4131313540124FF9297EF25C2
:1011AD00E0FFD296C2960EBE08E9D297D29630973E
:1011BD000C0DEDD394C840F6C2967F0022C2967FE7
:0111CD000120
:0111CE0022FE
:10137700E4FFD297FED296EF25E0FFA297E433422F
:0713870007C2960EBE08EE3E
:01138E00223C
:0312D2004480FF56
:1012D500C292C290C2918F807F017E001212B3D25A
:0B12E500927F057E001212B3C292221D
:10132900C292D290C2918F807F017E001212B3D2F5
:0B133900927F057E001212B3C29222C8
:10135E007F381212D57F0C1212D57F061212D57F4E
:09136E00011212D57F800212D594
:1012F000EF5401C4333354C01212D2E4F50F7F20EF
:0C130000121329050FE50FC3941040F2F2
:01130C0022BE
:1013FB008B0CEF5401C4333354C02D1212D2AF0CEB
:03140B00021329A0
:10112B008D0F8B108A118912EF5401C4333354C0C5
:10113B00250F4480FF1212D5AB10AA11A91212046D
:10114B003EFF6019121329050FE50FC39410500DC4
:0E115B0074012512F512E43511F51180DB2226
:101226005374617274696E672E2E2E005265736553
:101236007474696E672E2E2E004465627567676941
:061246006E672E2E2E0043
:100AAA000228008E022A008E012700042E00000070
:100ABA000004230000000002210000022C00005163
:100ACA0000E9483A787878DF4320204C3A787878F9
:100ADA00DF43005100D5543A7878782E78DF4320E6
:100AEA002046414E3A78004300E60100EB430100FC
:0F0AFA000100F44300FA0100D74300FD0100E4BE
:10101B0012140E120D627BFF7A12792612124C20DB
:10102B00B31A30B3FD7BFF7A12793212124C7D1654
:10103B00E4FF1212937D147F0112129320B212302F
:10104B00B2FD7BFF7A12793F12124C1213BD1210B4
:0F105B00ED20B70630B7FD120847120C4580C0D4
:10001E00020333E86480F8E933E83360110460F0DA
:10002E00ED33EC337009E8FCE9FDEAFEEBFF220448
:10003E0060DED3EB9FEA9EE99DE8C2E78CF0C2F743
:10004E0095F0400CE8CCF8E9CDF9EACEFAEBCFFB0F
:10005E001202FE85D0F05804700320D5B3E8047068
:10006E00075002B2D502033D92D5EC0460F7E4CC02
:10007E00C0E0C398F8603B94186008400DD0E0FBD8
:10008E00020315E4FBFAC9FC8028E830E406E4C953
:10009E00FBE4CAFCE830E305E4C9CACBFCE854072C
:1000AE006010F8C3E913F9EA13FAEB13FBEC13FC37
:1000BE00D8F130F52FC3E49CFCEF9BFFEE9AFEEDDA
:1000CE0099FDD0E0FBEF4E4D4C701222DB03020384
:1000DE003AEC2CFCEF33FFEE33FEED33FDED30E763
:1000EE00EB020315EF2BFFEE3AFEED39FDD0E0FBF0
:1000FE0050130BBB000302033DED13FDEE13FEEF99
:08010E0013FFEC13FC020315C2
:10011600EC4D6011E8497017ED33EC3304600DE4E3
:10012600FCFFFEFD22E933E8330470F802033312C4
:1001360002FE58046009E4CC2481500628500902C6
:10014600033D28400302033AC0E0EB4A7044B980FD
:1001560006D0E0FB020329EF4E701CBD8008EBFFC2
:10016600EAFEE9FD80EBE98DF0A4FEE5F00201FF71
:10017600E9CDF9EAFEEBFFEF89F0A4FCE5F0CE89C4
:10018600F0A42EFFE435F0CD89F0A42DFEE435F081
:100196008067EF4E7005BD80D780C3EF8BF0A4ACAF
:1001A600F0EE8BF0A42CFCE435F0F8EF8AF0A42CEA
:1001B600E5F038FCE433CB8DF0A42CFCE5F03BF8FD
:1001C600EE8AF0A42CFCE5F038F8E433CF89F0A4ED
:1001D6002CFCE5F038CF3400CE89F0A42FFFE5F0F3
:1001E6003EFEE433C98DF0A42EFEE5F039CD8AF04B
:1001F600A42FFFE5F03EFEE43DFD33D0E0FB5007C3
:100206000BBB000F02033DEC2CFCEF33FFEE33FE7D
:06021600ED33FD020315AB
:10021C0074F8CC6480CCC86480C8F582046043C395
:10022C00EB9FF5F0EA9E42F0E99D42F0E89C45F028
:10023C0060305018E5825FFFE582F42B5582FB504D
:10024C00210ABA001D09B90019088016E5825BFB6A
:10025C00E582F42F5582FF50090EBE00050DBD003E
:10026C00010CC3EB9FF5F0EA9E42F0E99D42F0E8E9
:0D027C009C45F06007CC4820E701B3EC2260
:1002890075F020800E75F010800575F0087D007EF0
:10029900007F003392D530D50312051FEC3340108F
:1002A900EF33FFEE33FEED33FDEC33FCD5F0ED22F9
:0E02B900E5F0247EA2D513CC92E7CDCEFF2235
:1002C700EDD2E7CD33EC3392D524814006E4FFFE2F
:1002D700FDFC22FCE4CFCECDCC24E0501174FF808E
:1002E700EDC3CC13CCCD13CDCE13CECF13CF04702B
:0702F700F030D5DE02051F07
:1002FE00E9D2E7C933E833F892D5EDD2E7CD33EC46
:07030E0033FC5002B2D522BE
:10031500EC30E7100FBF000C0EBE00080DBD000449
:100325000BEB6014A2D5EB13FCED92E7FD2274FFF5
:10033500FCFDFEFF22E480F8A2D574FF13FC7D804E
:03034500E480EF62
:03000000020F30BC
:0C0F3000787FE4F6D8FD758131020F7760
:10034800E709F608DFFA8046E709F208DFFA803E97
:1003580088828C83E709F0A3DFFA8032E309F60884
:10036800DFFA8078E309F208DFFA807088828C83EC
:10037800E309F0A3DFFA806489828A83E0A3F608A0
:10038800DFFA805889828A83E0A3F208DFFA804C7A
:1003980080D280FA80C680D4806980F28033801051
:1003A80080A680EA809A80A880DA80E280CA8033BA
:1003B80089828A83ECFAE493A3C8C582C8CCC58332
:1003C800CCF0A3C8C582C8CCC583CCDFE9DEE78002
:1003D8000D89828A83E493A3F608DFF9ECFAA9F081
:1003E800EDFB2289828A83ECFAE0A3C8C582C8CCD7
:1003F800C583CCF0A3C8C582C8CCC583CCDFEADEF0
:10040800E880DB89828A83E493A3F208DFF980CC51
:1004180088F0EF60010E4E60C388F0ED2402B4044A
:100428000050B9F582EB2402B4040050AF232345F1
:060438008223900398737B
:10043E00BB010689828A83E0225002E722BBFE02BC
:09044E00E32289828A83E49322EF
:10045700BB010CE58229F582E5833AF583E022505A
:1004670006E92582F8E622BBFE06E92582F8E222A4
:0D047700E58229F582E5833AF583E49322BE
:10048400BB010689828A83F0225002F722BBFE0157
:02049400F32251
:10049600F8BB010DE58229F582E5833AF583E8F09C
:1004A600225006E92582C8F622BBFE05E92582C848
:0204B600F22230
:1004B800EF8DF0A4A8F0CF8CF0A428CE8DF0A42E58
:0204C800FE2212
:1004CA00C2D5EC30E709B2D5E4C39DFDE49CFCEE4D
:1004DA0030E715B2D5E4C39FFFE49EFE120547C379
:1004EA00E49DFDE49CFC800312054730D507C3E474
:0604FA009FFFE49EFE22BC
:10050000BB010A89828A83F0E5F0A3F0225006F746
:0F05100009A7F01922BBFE06F3E5F009F3192243
:0E051F00C3E49FFFE49EFEE49DFDE49CFC22ED
:10052D00BB010789828A830205A85005E9F80205F7
:0A053D009CBBFE05E9F80205B4229C
:100F3C0002101BE493A3F8E493A34003F68001F2A0
:100F4C0008DFF48029E493A3F85407240CC8C333B6
:100F5C00C4540F4420C8834004F456800146F6DF85
:100F6C00E4800B01020408102040809009C4E47E48
:100F7C00019360BCA3FF543F30E509541FFEE4937A
:100F8C00A360010ECF54C025E060A840B8E493A341
:100F9C00FAE493A3F8E493A3C8C582C8CAC583CA6C
:100FAC00F0A3C8C582C8CAC583CADFE9DEE780BE24
:010B090000EB
:10054700BC000BBE0029EF8DF084FFADF022E4CC98
:10055700F875F008EF2FFFEE33FEEC33FCEE9DEC61
:10056700984005FCEE9DFE0FD5F0E9E4CEFD22EDA7
:10057700F8F5F0EE8420D21CFEADF075F008EF2FF1
:10058700FFED33FD4007985006D5F0F222C398FDE2
:050597000FD5F0EA227F
:0C059C00ECF608EDF608EEF608EFF6228B
:0C05A800ECF0A3EDF0A3EEF0A3EFF022C6
:0C05B400ECF208EDF208EEF208EFF22283
:00000001FF
